{
  "contractName": "Cars",
  "abi": [
    {
      "constant": false,
      "inputs": [],
      "name": "renounceOwnership",
      "outputs": [],
      "payable": false,
      "stateMutability": "nonpayable",
      "type": "function"
    },
    {
      "constant": true,
      "inputs": [],
      "name": "owner",
      "outputs": [
        {
          "name": "",
          "type": "address"
        }
      ],
      "payable": false,
      "stateMutability": "view",
      "type": "function"
    },
    {
      "constant": false,
      "inputs": [
        {
          "name": "_newOwner",
          "type": "address"
        }
      ],
      "name": "transferOwnership",
      "outputs": [],
      "payable": false,
      "stateMutability": "nonpayable",
      "type": "function"
    },
    {
      "anonymous": false,
      "inputs": [
        {
          "indexed": false,
          "name": "_carIndex",
          "type": "uint256"
        },
        {
          "indexed": false,
          "name": "_make",
          "type": "string"
        },
        {
          "indexed": false,
          "name": "_model",
          "type": "string"
        },
        {
          "indexed": false,
          "name": "_initialPrice",
          "type": "uint256"
        }
      ],
      "name": "CarAddedByContractOwner",
      "type": "event"
    },
    {
      "anonymous": false,
      "inputs": [
        {
          "indexed": false,
          "name": "_buyer",
          "type": "address"
        },
        {
          "indexed": false,
          "name": "_price",
          "type": "uint256"
        },
        {
          "indexed": false,
          "name": "_make",
          "type": "string"
        },
        {
          "indexed": false,
          "name": "_model",
          "type": "string"
        }
      ],
      "name": "CarBoughtFromContractOwner",
      "type": "event"
    },
    {
      "anonymous": false,
      "inputs": [
        {
          "indexed": false,
          "name": "_buyer",
          "type": "address"
        },
        {
          "indexed": false,
          "name": "_from",
          "type": "address"
        },
        {
          "indexed": false,
          "name": "_price",
          "type": "uint256"
        },
        {
          "indexed": false,
          "name": "_make",
          "type": "string"
        },
        {
          "indexed": false,
          "name": "_model",
          "type": "string"
        }
      ],
      "name": "CarBoughtFromSeller",
      "type": "event"
    },
    {
      "anonymous": false,
      "inputs": [
        {
          "indexed": false,
          "name": "_amount",
          "type": "uint256"
        },
        {
          "indexed": false,
          "name": "_timestamp",
          "type": "uint256"
        }
      ],
      "name": "ProfitWithdrawal",
      "type": "event"
    },
    {
      "anonymous": false,
      "inputs": [
        {
          "indexed": true,
          "name": "previousOwner",
          "type": "address"
        }
      ],
      "name": "OwnershipRenounced",
      "type": "event"
    },
    {
      "anonymous": false,
      "inputs": [
        {
          "indexed": true,
          "name": "previousOwner",
          "type": "address"
        },
        {
          "indexed": true,
          "name": "newOwner",
          "type": "address"
        }
      ],
      "name": "OwnershipTransferred",
      "type": "event"
    },
    {
      "constant": false,
      "inputs": [
        {
          "name": "_make",
          "type": "string"
        },
        {
          "name": "_model",
          "type": "string"
        },
        {
          "name": "_initialPrice",
          "type": "uint256"
        }
      ],
      "name": "addCar",
      "outputs": [
        {
          "name": "_carIndex",
          "type": "uint256"
        }
      ],
      "payable": false,
      "stateMutability": "nonpayable",
      "type": "function"
    },
    {
      "constant": false,
      "inputs": [
        {
          "name": "_index",
          "type": "uint256"
        }
      ],
      "name": "buyCarFromContractOwner",
      "outputs": [],
      "payable": true,
      "stateMutability": "payable",
      "type": "function"
    },
    {
      "constant": false,
      "inputs": [
        {
          "name": "_index",
          "type": "uint256"
        }
      ],
      "name": "buyCarFromSeller",
      "outputs": [],
      "payable": true,
      "stateMutability": "payable",
      "type": "function"
    },
    {
      "constant": true,
      "inputs": [
        {
          "name": "_index",
          "type": "uint256"
        }
      ],
      "name": "getCarInfo",
      "outputs": [
        {
          "name": "_carMake",
          "type": "string"
        },
        {
          "name": "_carModel",
          "type": "string"
        },
        {
          "name": "_carOwner",
          "type": "address"
        },
        {
          "name": "_carPrice",
          "type": "uint256"
        },
        {
          "name": "_isSecondHand",
          "type": "bool"
        }
      ],
      "payable": false,
      "stateMutability": "view",
      "type": "function"
    },
    {
      "constant": true,
      "inputs": [
        {
          "name": "_address",
          "type": "address"
        }
      ],
      "name": "getAddressCars",
      "outputs": [
        {
          "name": "",
          "type": "uint256[]"
        }
      ],
      "payable": false,
      "stateMutability": "view",
      "type": "function"
    },
    {
      "constant": false,
      "inputs": [],
      "name": "withdrawProfit",
      "outputs": [],
      "payable": false,
      "stateMutability": "nonpayable",
      "type": "function"
    },
    {
      "constant": true,
      "inputs": [],
      "name": "getContractBalance",
      "outputs": [
        {
          "name": "",
          "type": "uint256"
        }
      ],
      "payable": false,
      "stateMutability": "view",
      "type": "function"
    }
  ],
  "bytecode": "0x6080604052336000806101000a81548173ffffffffffffffffffffffffffffffffffffffff021916908373ffffffffffffffffffffffffffffffffffffffff1602179055506121a6806100536000396000f3006080604052600436106100a4576000357c0100000000000000000000000000000000000000000000000000000000900463ffffffff16806305574ee9146100a9578063210a98ce146101765780635574c36e1461020e5780636f9fb98a1461022e578063715018a6146102595780638da5cb5b14610270578063959499b6146102c7578063ca19cf46146102de578063d01af8bc146102fe578063f2fde38b14610455575b600080fd5b3480156100b557600080fd5b50610160600480360381019080803590602001908201803590602001908080601f0160208091040260200160405190810160405280939291908181526020018383808284378201915050505050509192919290803590602001908201803590602001908080601f016020809104026020016040519081016040528093929190818152602001838380828437820191505050505050919291929080359060200190929190505050610498565b6040518082815260200191505060405180910390f35b34801561018257600080fd5b506101b7600480360381019080803573ffffffffffffffffffffffffffffffffffffffff16906020019092919050505061088e565b6040518080602001828103825283818151815260200191508051906020019060200280838360005b838110156101fa5780820151818401526020810190506101df565b505050509050019250505060405180910390f35b61022c60048036038101908080359060200190929190505050610925565b005b34801561023a57600080fd5b50610243610f7b565b6040518082815260200191505060405180910390f35b34801561026557600080fd5b5061026e610ff5565b005b34801561027c57600080fd5b506102856110f7565b604051808273ffffffffffffffffffffffffffffffffffffffff1673ffffffffffffffffffffffffffffffffffffffff16815260200191505060405180910390f35b3480156102d357600080fd5b506102dc61111c565b005b6102fc600480360381019080803590602001909291905050506112db565b005b34801561030a57600080fd5b5061032960048036038101908080359060200190929190505050611980565b6040518080602001806020018673ffffffffffffffffffffffffffffffffffffffff1673ffffffffffffffffffffffffffffffffffffffff16815260200185815260200184151515158152602001838103835288818151815260200191508051906020019080838360005b838110156103af578082015181840152602081019050610394565b50505050905090810190601f1680156103dc5780820380516001836020036101000a031916815260200191505b50838103825287818151815260200191508051906020019080838360005b838110156104155780820151818401526020810190506103fa565b50505050905090810190601f1680156104425780820380516001836020036101000a031916815260200191505b5097505050505050505060405180910390f35b34801561046157600080fd5b50610496600480360381019080803573ffffffffffffffffffffffffffffffffffffffff169060200190929190505050611c34565b005b60006104a2612061565b60008060009054906101000a900473ffffffffffffffffffffffffffffffffffffffff1673ffffffffffffffffffffffffffffffffffffffff163373ffffffffffffffffffffffffffffffffffffffff161415156104ff57600080fd5b600084111515610577576040517f08c379a000000000000000000000000000000000000000000000000000000000815260040180806020018281038252601a8152602001807f496e76616c696420696e697469616c206361722070726963652e00000000000081525060200191505060405180910390fd5b60a0604051908101604052808781526020018681526020016000809054906101000a900473ffffffffffffffffffffffffffffffffffffffff1673ffffffffffffffffffffffffffffffffffffffff168152602001858152602001600015158152509150600180839080600181540180825580915050906001820390600052602060002090600502016000909192909190915060008201518160000190805190602001906106269291906120a9565b5060208201518160010190805190602001906106439291906120a9565b5060408201518160020160006101000a81548173ffffffffffffffffffffffffffffffffffffffff021916908373ffffffffffffffffffffffffffffffffffffffff1602179055506060820151816003015560808201518160040160006101000a81548160ff0219169083151502179055505050039250600260008060009054906101000a900473ffffffffffffffffffffffffffffffffffffffff1673ffffffffffffffffffffffffffffffffffffffff1673ffffffffffffffffffffffffffffffffffffffff168152602001908152602001600020839080600181540180825580915050906001820390600052602060002001600090919290919091505590506001810360036000858152602001908152602001600020819055507f06b4cd37a2da5d49484c919ad106b254991590a2ab0591e360fe825423ec3fc783836000015184602001518560600151604051808581526020018060200180602001848152602001838103835286818151815260200191508051906020019080838360005b838110156107e15780820151818401526020810190506107c6565b50505050905090810190601f16801561080e5780820380516001836020036101000a031916815260200191505b50838103825285818151815260200191508051906020019080838360005b8381101561084757808201518184015260208101905061082c565b50505050905090810190601f1680156108745780820380516001836020036101000a031916815260200191505b50965050505050505060405180910390a150509392505050565b6060600260008373ffffffffffffffffffffffffffffffffffffffff1673ffffffffffffffffffffffffffffffffffffffff16815260200190815260200160002080548060200260200160405190810160405280929190818152602001828054801561091957602002820191906000526020600020905b815481526020019060010190808311610905575b50505050509050919050565b6000806000806000851015801561094457506001805490506001860111155b15156109b8576040517f08c379a00000000000000000000000000000000000000000000000000000000081526004018080602001828103825260138152602001807f43617220646f6573206e6f742065786973742e0000000000000000000000000081525060200191505060405180910390fd5b6001858154811015156109c757fe5b906000526020600020906005020193508360020160009054906101000a900473ffffffffffffffffffffffffffffffffffffffff169250600115158460040160009054906101000a900460ff161515141515610ab1576040517f08c379a00000000000000000000000000000000000000000000000000000000081526004018080602001828103825260288152602001807f5468697320636172206973206f776e65642062792074686520636f6e7472616381526020017f74206f776e65722e00000000000000000000000000000000000000000000000081525060400191505060405180910390fd5b8273ffffffffffffffffffffffffffffffffffffffff163373ffffffffffffffffffffffffffffffffffffffff1614151515610b7b576040517f08c379a00000000000000000000000000000000000000000000000000000000081526004018080602001828103825260368152602001807f546865206f776e6572206f6620746865206361722063616e6e6f74206275792081526020017f612063617220686520616c7265616479206f776e732e0000000000000000000081525060400191505060405180910390fd5b34610b9460028660030154611c9b90919063ffffffff16565b11151515610c30576040517f08c379a00000000000000000000000000000000000000000000000000000000081526004018080602001828103825260398152602001807f596f75206d75737420706179206174206c65617374207477696365207468652081526020017f63757272656e74207072696365206f6620746865206361722e0000000000000081525060400191505060405180910390fd5b610c3a8386611cd3565b600260003373ffffffffffffffffffffffffffffffffffffffff1673ffffffffffffffffffffffffffffffffffffffff16815260200190815260200160002085908060018154018082558091505090600182039060005260206000200160009091929091909150559150600182036003600087815260200190815260200160002081905550610ce96002610cdb866003015434611f3890919063ffffffff16565b611f5190919063ffffffff16565b8460030154019050836003015481111515610d0057fe5b338460020160006101000a81548173ffffffffffffffffffffffffffffffffffffffff021916908373ffffffffffffffffffffffffffffffffffffffff1602179055503484600301819055508273ffffffffffffffffffffffffffffffffffffffff166108fc829081150290604051600060405180830381858888f19350505050158015610d92573d6000803e3d6000fd5b507f8f3b1d134e693896e188c5eb14a4213d7fc1f9bdcc82103e9ddd1e796c04babc8460020160009054906101000a900473ffffffffffffffffffffffffffffffffffffffff168486600301548760000188600101604051808673ffffffffffffffffffffffffffffffffffffffff1673ffffffffffffffffffffffffffffffffffffffff1681526020018573ffffffffffffffffffffffffffffffffffffffff1673ffffffffffffffffffffffffffffffffffffffff1681526020018481526020018060200180602001838103835285818154600181600116156101000203166002900481526020019150805460018160011615610100020316600290048015610ede5780601f10610eb357610100808354040283529160200191610ede565b820191906000526020600020905b815481529060010190602001808311610ec157829003601f168201915b5050838103825284818154600181600116156101000203166002900481526020019150805460018160011615610100020316600290048015610f615780601f10610f3657610100808354040283529160200191610f61565b820191906000526020600020905b815481529060010190602001808311610f4457829003601f168201915b505097505050505050505060405180910390a15050505050565b60008060009054906101000a900473ffffffffffffffffffffffffffffffffffffffff1673ffffffffffffffffffffffffffffffffffffffff163373ffffffffffffffffffffffffffffffffffffffff16141515610fd857600080fd5b3073ffffffffffffffffffffffffffffffffffffffff1631905090565b6000809054906101000a900473ffffffffffffffffffffffffffffffffffffffff1673ffffffffffffffffffffffffffffffffffffffff163373ffffffffffffffffffffffffffffffffffffffff1614151561105057600080fd5b6000809054906101000a900473ffffffffffffffffffffffffffffffffffffffff1673ffffffffffffffffffffffffffffffffffffffff167ff8df31144d9c2f0f6b59d69b8b98abd5459d07f2742c4df920b25aae33c6482060405160405180910390a260008060006101000a81548173ffffffffffffffffffffffffffffffffffffffff021916908373ffffffffffffffffffffffffffffffffffffffff160217905550565b6000809054906101000a900473ffffffffffffffffffffffffffffffffffffffff1681565b60008060009054906101000a900473ffffffffffffffffffffffffffffffffffffffff1673ffffffffffffffffffffffffffffffffffffffff163373ffffffffffffffffffffffffffffffffffffffff1614151561117957600080fd5b3073ffffffffffffffffffffffffffffffffffffffff16319050600081111515611231576040517f08c379a00000000000000000000000000000000000000000000000000000000081526004018080602001828103825260268152602001807f54686520636f6e747261637420646f6573206e6f74206861766520616e79207081526020017f726f6669742e000000000000000000000000000000000000000000000000000081525060400191505060405180910390fd5b6000809054906101000a900473ffffffffffffffffffffffffffffffffffffffff1673ffffffffffffffffffffffffffffffffffffffff166108fc829081150290604051600060405180830381858888f19350505050158015611298573d6000803e3d6000fd5b507feedac42b0023e5321fc6be2202c057bca3282debcff74a9748e2ad75029f16278142604051808381526020018281526020019250505060405180910390a150565b600080600083101580156112f757506001805490506001840111155b151561136b576040517f08c379a00000000000000000000000000000000000000000000000000000000081526004018080602001828103825260138152602001807f43617220646f6573206e6f742065786973742e0000000000000000000000000081525060200191505060405180910390fd5b60018381548110151561137a57fe5b90600052602060002090600502019150600015158260040160009054906101000a900460ff161515141515611417576040517f08c379a00000000000000000000000000000000000000000000000000000000081526004018080602001828103825260178152602001807f54686520636172206973207365636f6e642d68616e642e00000000000000000081525060200191505060405180910390fd5b6000809054906101000a900473ffffffffffffffffffffffffffffffffffffffff1673ffffffffffffffffffffffffffffffffffffffff168260020160009054906101000a900473ffffffffffffffffffffffffffffffffffffffff1673ffffffffffffffffffffffffffffffffffffffff16141515611525576040517f08c379a00000000000000000000000000000000000000000000000000000000081526004018080602001828103825260278152602001807f436f6e7472616374206f776e6572206973206e6f74206f776e6572206f66207481526020017f6865206361722e0000000000000000000000000000000000000000000000000081525060400191505060405180910390fd5b6000809054906101000a900473ffffffffffffffffffffffffffffffffffffffff1673ffffffffffffffffffffffffffffffffffffffff163373ffffffffffffffffffffffffffffffffffffffff1614151515611610576040517f08c379a00000000000000000000000000000000000000000000000000000000081526004018080602001828103825260348152602001807f436f6e7472616374206f776e6572206973206e6f7420616c6c6f77656420746f81526020017f2063616c6c20746869732066756e6374696f6e2e00000000000000000000000081525060400191505060405180910390fd5b816003015434101515156116b2576040517f08c379a00000000000000000000000000000000000000000000000000000000081526004018080602001828103825260278152602001807f54686520616d6f756e74206f662065746865722073656e74206973206e6f742081526020017f656e6f7567682e0000000000000000000000000000000000000000000000000081525060400191505060405180910390fd5b6116e08260020160009054906101000a900473ffffffffffffffffffffffffffffffffffffffff1684611cd3565b600260003373ffffffffffffffffffffffffffffffffffffffff1673ffffffffffffffffffffffffffffffffffffffff16815260200190815260200160002083908060018154018082558091505090600182039060005260206000200160009091929091909150559050600181036003600085815260200190815260200160002081905550338260020160006101000a81548173ffffffffffffffffffffffffffffffffffffffff021916908373ffffffffffffffffffffffffffffffffffffffff16021790555034826003018190555060018260040160006101000a81548160ff0219169083151502179055507fcb7d0d8c22463234b86a485899c37793e4faada99c2a125b27d9b5e5fcc34dc48260020160009054906101000a900473ffffffffffffffffffffffffffffffffffffffff1683600301548460000185600101604051808573ffffffffffffffffffffffffffffffffffffffff1673ffffffffffffffffffffffffffffffffffffffff16815260200184815260200180602001806020018381038352858181546001816001161561010002031660029004815260200191508054600181600116156101000203166002900480156118e65780601f106118bb576101008083540402835291602001916118e6565b820191906000526020600020905b8154815290600101906020018083116118c957829003601f168201915b50508381038252848181546001816001161561010002031660029004815260200191508054600181600116156101000203166002900480156119695780601f1061193e57610100808354040283529160200191611969565b820191906000526020600020905b81548152906001019060200180831161194c57829003601f168201915b5050965050505050505060405180910390a1505050565b6060806000806000611990612061565b600087101580156119a957506001870160018054905010155b1515611a1d576040517f08c379a00000000000000000000000000000000000000000000000000000000081526004018080602001828103825260138152602001807f43617220646f6573206e6f742065786973742e0000000000000000000000000081525060200191505060405180910390fd5b600187815481101515611a2c57fe5b906000526020600020906005020160a06040519081016040529081600082018054600181600116156101000203166002900480601f016020809104026020016040519081016040528092919081815260200182805460018160011615610100020316600290048015611adf5780601f10611ab457610100808354040283529160200191611adf565b820191906000526020600020905b815481529060010190602001808311611ac257829003601f168201915b50505050508152602001600182018054600181600116156101000203166002900480601f016020809104026020016040519081016040528092919081815260200182805460018160011615610100020316600290048015611b815780601f10611b5657610100808354040283529160200191611b81565b820191906000526020600020905b815481529060010190602001808311611b6457829003601f168201915b505050505081526020016002820160009054906101000a900473ffffffffffffffffffffffffffffffffffffffff1673ffffffffffffffffffffffffffffffffffffffff1673ffffffffffffffffffffffffffffffffffffffff168152602001600382015481526020016004820160009054906101000a900460ff161515151581525050905080604001519350806060015192508060000151955080602001519450806080015191505091939590929450565b6000809054906101000a900473ffffffffffffffffffffffffffffffffffffffff1673ffffffffffffffffffffffffffffffffffffffff163373ffffffffffffffffffffffffffffffffffffffff16141515611c8f57600080fd5b611c9881611f67565b50565b600080831415611cae5760009050611ccd565b8183029050818382811515611cbf57fe5b04141515611cc957fe5b8090505b92915050565b6000600360008381526020019081526020016000205490506001600260008573ffffffffffffffffffffffffffffffffffffffff1673ffffffffffffffffffffffffffffffffffffffff168152602001908152602001600020805490501115611ee0578060036000600260008773ffffffffffffffffffffffffffffffffffffffff1673ffffffffffffffffffffffffffffffffffffffff1681526020019081526020016000206001600260008973ffffffffffffffffffffffffffffffffffffffff1673ffffffffffffffffffffffffffffffffffffffff1681526020019081526020016000208054905003815481101515611dcc57fe5b9060005260206000200154815260200190815260200160002081905550600260008473ffffffffffffffffffffffffffffffffffffffff1673ffffffffffffffffffffffffffffffffffffffff1681526020019081526020016000206001600260008673ffffffffffffffffffffffffffffffffffffffff1673ffffffffffffffffffffffffffffffffffffffff1681526020019081526020016000208054905003815481101515611e7a57fe5b9060005260206000200154600260008573ffffffffffffffffffffffffffffffffffffffff1673ffffffffffffffffffffffffffffffffffffffff16815260200190815260200160002082815481101515611ed157fe5b90600052602060002001819055505b600260008473ffffffffffffffffffffffffffffffffffffffff1673ffffffffffffffffffffffffffffffffffffffff168152602001908152602001600020805480919060019003611f329190612129565b50505050565b6000828211151515611f4657fe5b818303905092915050565b60008183811515611f5e57fe5b04905092915050565b600073ffffffffffffffffffffffffffffffffffffffff168173ffffffffffffffffffffffffffffffffffffffff1614151515611fa357600080fd5b8073ffffffffffffffffffffffffffffffffffffffff166000809054906101000a900473ffffffffffffffffffffffffffffffffffffffff1673ffffffffffffffffffffffffffffffffffffffff167f8be0079c531659141344cd1fd0a4f28419497f9722a3daafe3b4186f6b6457e060405160405180910390a3806000806101000a81548173ffffffffffffffffffffffffffffffffffffffff021916908373ffffffffffffffffffffffffffffffffffffffff16021790555050565b60a0604051908101604052806060815260200160608152602001600073ffffffffffffffffffffffffffffffffffffffff168152602001600081526020016000151581525090565b828054600181600116156101000203166002900490600052602060002090601f016020900481019282601f106120ea57805160ff1916838001178555612118565b82800160010185558215612118579182015b828111156121175782518255916020019190600101906120fc565b5b5090506121259190612155565b5090565b8154818355818111156121505781836000526020600020918201910161214f9190612155565b5b505050565b61217791905b8082111561217357600081600090555060010161215b565b5090565b905600a165627a7a7230582086ab7e405432c35918b41b337724a4396f57314c4443e1e9a7c5e4ad642c22d90029",
  "source": "pragma solidity ^0.4.25;\r\n\r\nimport '../node_modules/openzeppelin-solidity/contracts/ownership/Ownable.sol';\r\nimport '../node_modules/openzeppelin-solidity/contracts/math/SafeMath.sol';\r\n\r\ncontract Cars is Ownable {\r\n    using SafeMath for uint;\r\n\r\n    struct Car {\r\n        string make;\r\n        string model;\r\n        address owner;\r\n        uint price;\r\n        bool isSecondHand;\r\n    }\r\n    \r\n    Car[] private cars;\r\n    \r\n    mapping(address => uint[]) addressCars;\r\n    mapping(uint => uint) carIndexPosition;\r\n    \r\n    event CarAddedByContractOwner(uint _carIndex, string _make, string _model, uint _initialPrice);\r\n    event CarBoughtFromContractOwner(address _buyer, uint256 _price, string _make, string _model);\r\n    event CarBoughtFromSeller(address _buyer, address _from, uint _price, string _make, string _model);\r\n    event ProfitWithdrawal(uint _amount, uint _timestamp);\r\n    \r\n    function addCar(string _make, string _model, uint _initialPrice) public onlyOwner returns(uint _carIndex) {\r\n        require(_initialPrice > 0, \"Invalid initial car price.\");\r\n        \r\n        Car memory car = Car(_make, _model, owner, _initialPrice, false);\r\n        _carIndex = cars.push(car) - 1;\r\n        \r\n        uint carsLength = addressCars[owner].push(_carIndex);\r\n        carIndexPosition[_carIndex] = carsLength - 1;\r\n        \r\n        emit CarAddedByContractOwner(_carIndex, car.make, car.model, car.price);\r\n    }\r\n    \r\n    function buyCarFromContractOwner(uint _index) public payable {\r\n        require(_index >= 0 && _index + 1 <= cars.length, \"Car does not exist.\");\r\n        \r\n        Car storage car = cars[_index];\r\n        require(car.isSecondHand == false, \"The car is second-hand.\");\r\n        require(car.owner == owner, \"Contract owner is not owner of the car.\");\r\n        require(msg.sender != owner, \"Contract owner is not allowed to call this function.\");\r\n        require(msg.value >= car.price, \"The amount of ether sent is not enough.\");\r\n        \r\n        removeCarFromCurrentOwner(car.owner, _index);\r\n        \r\n        uint carsLength = addressCars[msg.sender].push(_index);\r\n        carIndexPosition[_index] = carsLength - 1;\r\n        \r\n        car.owner = msg.sender;\r\n        car.price = msg.value;\r\n        car.isSecondHand = true;\r\n        \r\n        emit CarBoughtFromContractOwner(car.owner, car.price, car.make, car.model);\r\n    }\r\n    \r\n    function buyCarFromSeller(uint _index) public payable {\r\n        require(_index >= 0 && _index + 1 <= cars.length, \"Car does not exist.\");\r\n        \r\n        Car storage car = cars[_index];\r\n        address currentOwner = car.owner;\r\n        \r\n        require(car.isSecondHand == true, \"This car is owned by the contract owner.\");\r\n        require(msg.sender != currentOwner, \"The owner of the car cannot buy a car he already owns.\");\r\n        require(car.price.mul(2) <= msg.value, \"You must pay at least twice the current price of the car.\");\r\n        \r\n        removeCarFromCurrentOwner(currentOwner, _index);\r\n        \r\n        uint carsLength = addressCars[msg.sender].push(_index);\r\n        carIndexPosition[_index] = carsLength - 1;\r\n        \r\n        uint refund = car.price + msg.value.sub(car.price).div(2);\r\n        assert(refund > car.price);\r\n   \r\n        car.owner = msg.sender;\r\n        car.price = msg.value;\r\n        \r\n        currentOwner.transfer(refund);\r\n        \r\n        emit CarBoughtFromSeller(car.owner, currentOwner, car.price, car.make, car.model);\r\n    }\r\n    \r\n    function getCarInfo(uint _index) public view returns (string _carMake, string _carModel, address _carOwner, uint _carPrice, bool _isSecondHand) {\r\n        require(_index >= 0 && cars.length >= _index + 1, \"Car does not exist.\");\r\n        \r\n        Car memory car = cars[_index];\r\n        _carOwner = car.owner;\r\n        _carPrice = car.price;\r\n        _carMake = car.make;\r\n        _carModel = car.model;\r\n        _isSecondHand = car.isSecondHand;\r\n    }\r\n    \r\n    function getAddressCars(address _address) public view returns (uint[]) {\r\n        return addressCars[_address];\r\n    }\r\n    \r\n    function withdrawProfit() onlyOwner public {\r\n        uint balance = address(this).balance;\r\n        require(balance > 0, \"The contract does not have any profit.\");\r\n        address(owner).transfer(balance);\r\n        \r\n        emit ProfitWithdrawal(balance, now);\r\n    }\r\n    \r\n    function getContractBalance() public view onlyOwner returns (uint) {\r\n        return address(this).balance;\r\n    }\r\n    \r\n    function removeCarFromCurrentOwner(address _owner, uint _carIndex) private {\r\n        uint arrIndex = carIndexPosition[_carIndex];\r\n    \r\n        if (addressCars[_owner].length > 1) {\r\n            carIndexPosition[addressCars[_owner][addressCars[_owner].length - 1]] = arrIndex;\r\n            \r\n            addressCars[_owner][arrIndex] = addressCars[_owner][addressCars[_owner].length - 1];\r\n        }\r\n        \r\n        addressCars[_owner].length--;\r\n    }\r\n}",
  "sourcePath": "D:\\Blockchain Dev Camp June\\LimeAcademy\\cars-etherlime\\contracts\\Cars.sol",
  "compiler": {
    "name": "solc",
    "version": "0.4.25+commit.59dbf8f1.Emscripten.clang"
  },
  "schemaVersion": "0.9.8",
  "updatedAt": "2018-10-20T19:32:39.804Z"
}