{
  "contractName": "CarTokenCrowdsale",
  "abi": [
    {
      "constant": true,
      "inputs": [],
      "name": "MIN_CONTRIBUTION_AMOUNT",
      "outputs": [
        {
          "name": "",
          "type": "uint256"
        }
      ],
      "payable": false,
      "stateMutability": "view",
      "type": "function"
    },
    {
      "constant": true,
      "inputs": [],
      "name": "firstWeekPublicSaleEndDate",
      "outputs": [
        {
          "name": "",
          "type": "uint256"
        }
      ],
      "payable": false,
      "stateMutability": "view",
      "type": "function"
    },
    {
      "constant": true,
      "inputs": [],
      "name": "hasClosed",
      "outputs": [
        {
          "name": "",
          "type": "bool"
        }
      ],
      "payable": false,
      "stateMutability": "view",
      "type": "function"
    },
    {
      "constant": true,
      "inputs": [],
      "name": "PUBLIC_SALE_1_WEEK_RATE",
      "outputs": [
        {
          "name": "",
          "type": "uint256"
        }
      ],
      "payable": false,
      "stateMutability": "view",
      "type": "function"
    },
    {
      "constant": true,
      "inputs": [],
      "name": "rate",
      "outputs": [
        {
          "name": "",
          "type": "uint256"
        }
      ],
      "payable": false,
      "stateMutability": "view",
      "type": "function"
    },
    {
      "constant": true,
      "inputs": [],
      "name": "cap",
      "outputs": [
        {
          "name": "",
          "type": "uint256"
        }
      ],
      "payable": false,
      "stateMutability": "view",
      "type": "function"
    },
    {
      "constant": true,
      "inputs": [],
      "name": "HARD_CAP",
      "outputs": [
        {
          "name": "",
          "type": "uint256"
        }
      ],
      "payable": false,
      "stateMutability": "view",
      "type": "function"
    },
    {
      "constant": true,
      "inputs": [],
      "name": "goal",
      "outputs": [
        {
          "name": "",
          "type": "uint256"
        }
      ],
      "payable": false,
      "stateMutability": "view",
      "type": "function"
    },
    {
      "constant": true,
      "inputs": [],
      "name": "weiRaised",
      "outputs": [
        {
          "name": "",
          "type": "uint256"
        }
      ],
      "payable": false,
      "stateMutability": "view",
      "type": "function"
    },
    {
      "constant": true,
      "inputs": [],
      "name": "isOpen",
      "outputs": [
        {
          "name": "",
          "type": "bool"
        }
      ],
      "payable": false,
      "stateMutability": "view",
      "type": "function"
    },
    {
      "constant": true,
      "inputs": [],
      "name": "closingTime",
      "outputs": [
        {
          "name": "",
          "type": "uint256"
        }
      ],
      "payable": false,
      "stateMutability": "view",
      "type": "function"
    },
    {
      "constant": false,
      "inputs": [],
      "name": "finalize",
      "outputs": [],
      "payable": false,
      "stateMutability": "nonpayable",
      "type": "function"
    },
    {
      "constant": true,
      "inputs": [],
      "name": "capReached",
      "outputs": [
        {
          "name": "",
          "type": "bool"
        }
      ],
      "payable": false,
      "stateMutability": "view",
      "type": "function"
    },
    {
      "constant": true,
      "inputs": [],
      "name": "wallet",
      "outputs": [
        {
          "name": "",
          "type": "address"
        }
      ],
      "payable": false,
      "stateMutability": "view",
      "type": "function"
    },
    {
      "constant": true,
      "inputs": [],
      "name": "goalReached",
      "outputs": [
        {
          "name": "",
          "type": "bool"
        }
      ],
      "payable": false,
      "stateMutability": "view",
      "type": "function"
    },
    {
      "constant": true,
      "inputs": [],
      "name": "DEFAULT_RATE",
      "outputs": [
        {
          "name": "",
          "type": "uint256"
        }
      ],
      "payable": false,
      "stateMutability": "view",
      "type": "function"
    },
    {
      "constant": true,
      "inputs": [],
      "name": "CROWDSALE_DURATION",
      "outputs": [
        {
          "name": "",
          "type": "uint256"
        }
      ],
      "payable": false,
      "stateMutability": "view",
      "type": "function"
    },
    {
      "constant": true,
      "inputs": [],
      "name": "finalized",
      "outputs": [
        {
          "name": "",
          "type": "bool"
        }
      ],
      "payable": false,
      "stateMutability": "view",
      "type": "function"
    },
    {
      "constant": true,
      "inputs": [],
      "name": "SOFT_CAP",
      "outputs": [
        {
          "name": "",
          "type": "uint256"
        }
      ],
      "payable": false,
      "stateMutability": "view",
      "type": "function"
    },
    {
      "constant": true,
      "inputs": [],
      "name": "openingTime",
      "outputs": [
        {
          "name": "",
          "type": "uint256"
        }
      ],
      "payable": false,
      "stateMutability": "view",
      "type": "function"
    },
    {
      "constant": false,
      "inputs": [
        {
          "name": "beneficiary",
          "type": "address"
        }
      ],
      "name": "claimRefund",
      "outputs": [],
      "payable": false,
      "stateMutability": "nonpayable",
      "type": "function"
    },
    {
      "constant": true,
      "inputs": [],
      "name": "OWNER_PERCENTAGE_TOKENS",
      "outputs": [
        {
          "name": "",
          "type": "uint256"
        }
      ],
      "payable": false,
      "stateMutability": "view",
      "type": "function"
    },
    {
      "constant": false,
      "inputs": [
        {
          "name": "beneficiary",
          "type": "address"
        }
      ],
      "name": "buyTokens",
      "outputs": [],
      "payable": true,
      "stateMutability": "payable",
      "type": "function"
    },
    {
      "constant": true,
      "inputs": [],
      "name": "token",
      "outputs": [
        {
          "name": "",
          "type": "address"
        }
      ],
      "payable": false,
      "stateMutability": "view",
      "type": "function"
    },
    {
      "inputs": [
        {
          "name": "_startDate",
          "type": "uint256"
        },
        {
          "name": "_endDate",
          "type": "uint256"
        },
        {
          "name": "_wallet",
          "type": "address"
        },
        {
          "name": "_tokenName",
          "type": "string"
        },
        {
          "name": "_tokenSymbol",
          "type": "string"
        },
        {
          "name": "_tokenDecimals",
          "type": "uint8"
        }
      ],
      "payable": false,
      "stateMutability": "nonpayable",
      "type": "constructor"
    },
    {
      "payable": true,
      "stateMutability": "payable",
      "type": "fallback"
    },
    {
      "anonymous": false,
      "inputs": [],
      "name": "CrowdsaleFinalized",
      "type": "event"
    },
    {
      "anonymous": false,
      "inputs": [
        {
          "indexed": true,
          "name": "purchaser",
          "type": "address"
        },
        {
          "indexed": true,
          "name": "beneficiary",
          "type": "address"
        },
        {
          "indexed": false,
          "name": "value",
          "type": "uint256"
        },
        {
          "indexed": false,
          "name": "amount",
          "type": "uint256"
        }
      ],
      "name": "TokensPurchased",
      "type": "event"
    }
  ],
  "bytecode": "0x60806040523480156200001157600080fd5b5060405162003f0b38038062003f0b833981018060405281019080805190602001909291908051906020019092919080519060200190929190805182019291906020018051820192919060200180519060200190929190505050678ac7230489e80000868668056bc75e2d631000006064888888886200009062000604565b8080602001806020018460ff1660ff168152602001838103835286818151815260200191508051906020019080838360005b83811015620000df578082015181840152602081019050620000c2565b50505050905090810190601f1680156200010d5780820380516001836020036101000a031916815260200191505b50838103825285818151815260200191508051906020019080838360005b83811015620001485780820151818401526020810190506200012b565b50505050905090810190601f168015620001765780820380516001836020036101000a031916815260200191505b5095505050505050604051809103906000f0801580156200019b573d6000803e3d6000fd5b506001600081905550600083111515620001b457600080fd5b600073ffffffffffffffffffffffffffffffffffffffff168273ffffffffffffffffffffffffffffffffffffffff1614151515620001f157600080fd5b600073ffffffffffffffffffffffffffffffffffffffff168173ffffffffffffffffffffffffffffffffffffffff16141515156200022e57600080fd5b8260038190555081600260006101000a81548173ffffffffffffffffffffffffffffffffffffffff021916908373ffffffffffffffffffffffffffffffffffffffff16021790555080600160006101000a81548173ffffffffffffffffffffffffffffffffffffffff021916908373ffffffffffffffffffffffffffffffffffffffff160217905550505050600081111515620002ca57600080fd5b8060058190555050428210151515620002e257600080fd5b8181111515620002f157600080fd5b816006819055508060078190555050506000600860006101000a81548160ff0219169083151502179055506000811115156200032c57600080fd5b6200034562000596640100000000026401000000009004565b6200034f62000615565b808273ffffffffffffffffffffffffffffffffffffffff1673ffffffffffffffffffffffffffffffffffffffff168152602001915050604051809103906000f080158015620003a2573d6000803e3d6000fd5b50600a60006101000a81548173ffffffffffffffffffffffffffffffffffffffff021916908373ffffffffffffffffffffffffffffffffffffffff160217905550806009819055505068056bc75e2d63100000678ac7230489e80000111515156200049b576040517f08c379a00000000000000000000000000000000000000000000000000000000081526004018080602001828103825260248152602001807f484152445f434150206973206e6f7420626967676572207468616e20534f465481526020017f5f4341500000000000000000000000000000000000000000000000000000000081525060400191505060405180910390fd5b62127500620004c28787620005c06401000000000262001151179091906401000000009004565b1415156200055e576040517f08c379a00000000000000000000000000000000000000000000000000000000081526004018080602001828103825260218152602001807f43726f776473616c65206475726174696f6e206973206e6f742032207765656b81526020017f730000000000000000000000000000000000000000000000000000000000000081525060400191505060405180910390fd5b6200058462093a8087620005e26401000000000262000a6e179091906401000000009004565b600b8190555050505050505062000626565b6000600260009054906101000a900473ffffffffffffffffffffffffffffffffffffffff16905090565b600080838311151515620005d357600080fd5b82840390508091505092915050565b6000808284019050838110151515620005fa57600080fd5b8091505092915050565b604051611a1780620017d483390190565b604051610d2080620031eb83390190565b61119e80620006366000396000f30060806040526004361061013e576000357c0100000000000000000000000000000000000000000000000000000000900463ffffffff1680630c49c0a214610149578063132bcebe146101745780631515bc2b1461019f57806321956faf146101ce5780632c4e722e146101f9578063355274ea146102245780633a03171c1461024f578063401938831461027a5780634042b66f146102a557806347535d7b146102d05780634b6753bc146102ff5780634bb278f31461032a5780634f93594514610341578063521eb273146103705780637d3d6522146103c7578063a3e860fe146103f6578063ad3c0b9d14610421578063b3f05b971461044c578063b652dc2f1461047b578063b7a8807c146104a6578063bffa55d5146104d1578063c608e8dd14610514578063ec8ac4d81461053f578063fc0c546a14610575575b610147336105cc565b005b34801561015557600080fd5b5061015e6106c2565b6040518082815260200191505060405180910390f35b34801561018057600080fd5b506101896106cd565b6040518082815260200191505060405180910390f35b3480156101ab57600080fd5b506101b46106d3565b604051808215151515815260200191505060405180910390f35b3480156101da57600080fd5b506101e36106df565b6040518082815260200191505060405180910390f35b34801561020557600080fd5b5061020e6106e4565b6040518082815260200191505060405180910390f35b34801561023057600080fd5b506102396106ee565b6040518082815260200191505060405180910390f35b34801561025b57600080fd5b506102646106f8565b6040518082815260200191505060405180910390f35b34801561028657600080fd5b5061028f610705565b6040518082815260200191505060405180910390f35b3480156102b157600080fd5b506102ba61070f565b6040518082815260200191505060405180910390f35b3480156102dc57600080fd5b506102e5610719565b604051808215151515815260200191505060405180910390f35b34801561030b57600080fd5b50610314610734565b6040518082815260200191505060405180910390f35b34801561033657600080fd5b5061033f61073e565b005b34801561034d57600080fd5b506103566107be565b604051808215151515815260200191505060405180910390f35b34801561037c57600080fd5b506103856107d2565b604051808273ffffffffffffffffffffffffffffffffffffffff1673ffffffffffffffffffffffffffffffffffffffff16815260200191505060405180910390f35b3480156103d357600080fd5b506103dc6107fc565b604051808215151515815260200191505060405180910390f35b34801561040257600080fd5b5061040b610810565b6040518082815260200191505060405180910390f35b34801561042d57600080fd5b50610436610815565b6040518082815260200191505060405180910390f35b34801561045857600080fd5b5061046161081c565b604051808215151515815260200191505060405180910390f35b34801561048757600080fd5b50610490610833565b6040518082815260200191505060405180910390f35b3480156104b257600080fd5b506104bb61083f565b6040518082815260200191505060405180910390f35b3480156104dd57600080fd5b50610512600480360381019080803573ffffffffffffffffffffffffffffffffffffffff169060200190929190505050610849565b005b34801561052057600080fd5b50610529610948565b6040518082815260200191505060405180910390f35b610573600480360381019080803573ffffffffffffffffffffffffffffffffffffffff1690602001909291905050506105cc565b005b34801561058157600080fd5b5061058a61094d565b604051808273ffffffffffffffffffffffffffffffffffffffff1673ffffffffffffffffffffffffffffffffffffffff16815260200191505060405180910390f35b60008060006001600080828254019250508190555060005490503492506105f38484610977565b6105fc83610a2a565b915061061383600454610a6e90919063ffffffff16565b6004819055506106238483610a8f565b8373ffffffffffffffffffffffffffffffffffffffff163373ffffffffffffffffffffffffffffffffffffffff167f6faf93231a456e552dbc9961f58d9713ee4f2e69d15f1975b050ef0911053a7b8585604051808381526020018281526020019250505060405180910390a361069a8484610a9d565b6106a2610aa1565b6106ac8484610b79565b600054811415156106bc57600080fd5b50505050565b662386f26fc1000081565b600b5481565b60006007544211905090565b608c81565b6000600354905090565b6000600554905090565b68056bc75e2d6310000081565b6000600954905090565b6000600454905090565b6000600654421015801561072f57506007544211155b905090565b6000600754905090565b600860009054906101000a900460ff1615151561075a57600080fd5b6107626106d3565b151561076d57600080fd5b6001600860006101000a81548160ff021916908315150217905550610790610b7d565b7f9270cc390c096600a1c17c44345a1ba689fafd99d97487b10cfccf86cf73183660405160405180910390a1565b60006005546107cb61070f565b1015905090565b6000600260009054906101000a900473ffffffffffffffffffffffffffffffffffffffff16905090565b600060095461080961070f565b1015905090565b606481565b6212750081565b6000600860009054906101000a900460ff16905090565b678ac7230489e8000081565b6000600654905090565b61085161081c565b151561085c57600080fd5b6108646107fc565b15151561087057600080fd5b600a60009054906101000a900473ffffffffffffffffffffffffffffffffffffffff1673ffffffffffffffffffffffffffffffffffffffff166351cff8d9826040518263ffffffff167c0100000000000000000000000000000000000000000000000000000000028152600401808273ffffffffffffffffffffffffffffffffffffffff1673ffffffffffffffffffffffffffffffffffffffff168152602001915050600060405180830381600087803b15801561092d57600080fd5b505af1158015610941573d6000803e3d6000fd5b5050505050565b600a81565b6000600160009054906101000a900473ffffffffffffffffffffffffffffffffffffffff16905090565b662386f26fc100008110151515610a1c576040517f08c379a00000000000000000000000000000000000000000000000000000000081526004018080602001828103825260338152602001807f596f7572206861766520746f20706179206d696e696d756d206f66203130206681526020017f696e6e657920746f2062757920746f6b656e730000000000000000000000000081525060400191505060405180910390fd5b610a268282610d53565b5050565b6000600b5442111515610a5257610a4b608c83610d7490919063ffffffff16565b9050610a69565b610a66606483610d7490919063ffffffff16565b90505b919050565b6000808284019050838110151515610a8557600080fd5b8091505092915050565b610a998282610db2565b5050565b5050565b600a60009054906101000a900473ffffffffffffffffffffffffffffffffffffffff1673ffffffffffffffffffffffffffffffffffffffff1663f340fa0134336040518363ffffffff167c0100000000000000000000000000000000000000000000000000000000028152600401808273ffffffffffffffffffffffffffffffffffffffff1673ffffffffffffffffffffffffffffffffffffffff1681526020019150506000604051808303818588803b158015610b5e57600080fd5b505af1158015610b72573d6000803e3d6000fd5b5050505050565b5050565b6000610b876107fc565b15610d4857610c586064610c4a600a610b9e61094d565b73ffffffffffffffffffffffffffffffffffffffff166318160ddd6040518163ffffffff167c0100000000000000000000000000000000000000000000000000000000028152600401602060405180830381600087803b158015610c0157600080fd5b505af1158015610c15573d6000803e3d6000fd5b505050506040513d6020811015610c2b57600080fd5b8101908080519060200190929190505050610d7490919063ffffffff16565b610ea690919063ffffffff16565b9050610c6261094d565b73ffffffffffffffffffffffffffffffffffffffff166340c10f19610c856107d2565b836040518363ffffffff167c0100000000000000000000000000000000000000000000000000000000028152600401808373ffffffffffffffffffffffffffffffffffffffff1673ffffffffffffffffffffffffffffffffffffffff16815260200182815260200192505050602060405180830381600087803b158015610d0b57600080fd5b505af1158015610d1f573d6000803e3d6000fd5b505050506040513d6020811015610d3557600080fd5b8101908080519060200190929190505050505b610d50610ed0565b50565b610d5b610719565b1515610d6657600080fd5b610d7082826110c7565b5050565b6000806000841415610d895760009150610dab565b8284029050828482811515610d9a57fe5b04141515610da757600080fd5b8091505b5092915050565b610dba61094d565b73ffffffffffffffffffffffffffffffffffffffff166340c10f1983836040518363ffffffff167c0100000000000000000000000000000000000000000000000000000000028152600401808373ffffffffffffffffffffffffffffffffffffffff1673ffffffffffffffffffffffffffffffffffffffff16815260200182815260200192505050602060405180830381600087803b158015610e5c57600080fd5b505af1158015610e70573d6000803e3d6000fd5b505050506040513d6020811015610e8657600080fd5b81019080805190602001909291905050501515610ea257600080fd5b5050565b600080600083111515610eb857600080fd5b8284811515610ec357fe5b0490508091505092915050565b610ed86107fc565b1561101e57600a60009054906101000a900473ffffffffffffffffffffffffffffffffffffffff1673ffffffffffffffffffffffffffffffffffffffff166343d726d66040518163ffffffff167c0100000000000000000000000000000000000000000000000000000000028152600401600060405180830381600087803b158015610f6357600080fd5b505af1158015610f77573d6000803e3d6000fd5b50505050600a60009054906101000a900473ffffffffffffffffffffffffffffffffffffffff1673ffffffffffffffffffffffffffffffffffffffff16639af6549a6040518163ffffffff167c0100000000000000000000000000000000000000000000000000000000028152600401600060405180830381600087803b15801561100157600080fd5b505af1158015611015573d6000803e3d6000fd5b505050506110bd565b600a60009054906101000a900473ffffffffffffffffffffffffffffffffffffffff1673ffffffffffffffffffffffffffffffffffffffff16638c52dc416040518163ffffffff167c0100000000000000000000000000000000000000000000000000000000028152600401600060405180830381600087803b1580156110a457600080fd5b505af11580156110b8573d6000803e3d6000fd5b505050505b6110c56110ff565b565b6110d18282611101565b6005546110ee826110e061070f565b610a6e90919063ffffffff16565b111515156110fb57600080fd5b5050565b565b600073ffffffffffffffffffffffffffffffffffffffff168273ffffffffffffffffffffffffffffffffffffffff161415151561113d57600080fd5b6000811415151561114d57600080fd5b5050565b60008083831115151561116357600080fd5b828403905080915050929150505600a165627a7a72305820dcda8240f11402799d8db44a8a2508909633800fd75cfd06f8fe3c2a9259e04c002960806040523480156200001157600080fd5b5060405162001a1738038062001a178339810180604052810190808051820192919060200180518201929190602001805190602001909291905050508282826200006a33620000c3640100000000026401000000009004565b82600490805190602001906200008292919062000285565b5081600590805190602001906200009b92919062000285565b5080600660006101000a81548160ff021916908360ff16021790555050505050505062000334565b620000e78160036200012d6401000000000262001548179091906401000000009004565b8073ffffffffffffffffffffffffffffffffffffffff167f6ae172837ea30b801fbfcdd4108aa1d5bf8ff775444fd70256b44e6bf3dfc3f660405160405180910390a250565b600073ffffffffffffffffffffffffffffffffffffffff168173ffffffffffffffffffffffffffffffffffffffff16141515156200016a57600080fd5b620001858282620001f0640100000000026401000000009004565b1515156200019257600080fd5b60018260000160008373ffffffffffffffffffffffffffffffffffffffff1673ffffffffffffffffffffffffffffffffffffffff16815260200190815260200160002060006101000a81548160ff0219169083151502179055505050565b60008073ffffffffffffffffffffffffffffffffffffffff168273ffffffffffffffffffffffffffffffffffffffff16141515156200022e57600080fd5b8260000160008373ffffffffffffffffffffffffffffffffffffffff1673ffffffffffffffffffffffffffffffffffffffff16815260200190815260200160002060009054906101000a900460ff16905092915050565b828054600181600116156101000203166002900490600052602060002090601f016020900481019282601f10620002c857805160ff1916838001178555620002f9565b82800160010185558215620002f9579182015b82811115620002f8578251825591602001919060010190620002db565b5b5090506200030891906200030c565b5090565b6200033191905b808211156200032d57600081600090555060010162000313565b5090565b90565b6116d380620003446000396000f3006080604052600436106100db576000357c0100000000000000000000000000000000000000000000000000000000900463ffffffff16806306fdde03146100e0578063095ea7b31461017057806318160ddd146101d557806323b872dd14610200578063313ce5671461028557806339509351146102b657806340c10f191461031b57806370a082311461038057806395d89b41146103d7578063983b2d561461046757806398650275146104aa578063a457c2d7146104c1578063a9059cbb14610526578063aa271e1a1461058b578063dd62ed3e146105e6575b600080fd5b3480156100ec57600080fd5b506100f561065d565b6040518080602001828103825283818151815260200191508051906020019080838360005b8381101561013557808201518184015260208101905061011a565b50505050905090810190601f1680156101625780820380516001836020036101000a031916815260200191505b509250505060405180910390f35b34801561017c57600080fd5b506101bb600480360381019080803573ffffffffffffffffffffffffffffffffffffffff169060200190929190803590602001909291905050506106ff565b604051808215151515815260200191505060405180910390f35b3480156101e157600080fd5b506101ea61082c565b6040518082815260200191505060405180910390f35b34801561020c57600080fd5b5061026b600480360381019080803573ffffffffffffffffffffffffffffffffffffffff169060200190929190803573ffffffffffffffffffffffffffffffffffffffff16906020019092919080359060200190929190505050610836565b604051808215151515815260200191505060405180910390f35b34801561029157600080fd5b5061029a6109e8565b604051808260ff1660ff16815260200191505060405180910390f35b3480156102c257600080fd5b50610301600480360381019080803573ffffffffffffffffffffffffffffffffffffffff169060200190929190803590602001909291905050506109ff565b604051808215151515815260200191505060405180910390f35b34801561032757600080fd5b50610366600480360381019080803573ffffffffffffffffffffffffffffffffffffffff16906020019092919080359060200190929190505050610c36565b604051808215151515815260200191505060405180910390f35b34801561038c57600080fd5b506103c1600480360381019080803573ffffffffffffffffffffffffffffffffffffffff169060200190929190505050610c60565b6040518082815260200191505060405180910390f35b3480156103e357600080fd5b506103ec610ca8565b6040518080602001828103825283818151815260200191508051906020019080838360005b8381101561042c578082015181840152602081019050610411565b50505050905090810190601f1680156104595780820380516001836020036101000a031916815260200191505b509250505060405180910390f35b34801561047357600080fd5b506104a8600480360381019080803573ffffffffffffffffffffffffffffffffffffffff169060200190929190505050610d4a565b005b3480156104b657600080fd5b506104bf610d6a565b005b3480156104cd57600080fd5b5061050c600480360381019080803573ffffffffffffffffffffffffffffffffffffffff16906020019092919080359060200190929190505050610d75565b604051808215151515815260200191505060405180910390f35b34801561053257600080fd5b50610571600480360381019080803573ffffffffffffffffffffffffffffffffffffffff16906020019092919080359060200190929190505050610fac565b604051808215151515815260200191505060405180910390f35b34801561059757600080fd5b506105cc600480360381019080803573ffffffffffffffffffffffffffffffffffffffff169060200190929190505050610fc3565b604051808215151515815260200191505060405180910390f35b3480156105f257600080fd5b50610647600480360381019080803573ffffffffffffffffffffffffffffffffffffffff169060200190929190803573ffffffffffffffffffffffffffffffffffffffff169060200190929190505050610fe0565b6040518082815260200191505060405180910390f35b606060048054600181600116156101000203166002900480601f0160208091040260200160405190810160405280929190818152602001828054600181600116156101000203166002900480156106f55780601f106106ca576101008083540402835291602001916106f5565b820191906000526020600020905b8154815290600101906020018083116106d857829003601f168201915b5050505050905090565b60008073ffffffffffffffffffffffffffffffffffffffff168373ffffffffffffffffffffffffffffffffffffffff161415151561073c57600080fd5b81600160003373ffffffffffffffffffffffffffffffffffffffff1673ffffffffffffffffffffffffffffffffffffffff16815260200190815260200160002060008573ffffffffffffffffffffffffffffffffffffffff1673ffffffffffffffffffffffffffffffffffffffff168152602001908152602001600020819055508273ffffffffffffffffffffffffffffffffffffffff163373ffffffffffffffffffffffffffffffffffffffff167f8c5be1e5ebec7d5bd14f71427d1e84f3dd0314c0f7b2291e5b200ac8c7c3b925846040518082815260200191505060405180910390a36001905092915050565b6000600254905090565b6000600160008573ffffffffffffffffffffffffffffffffffffffff1673ffffffffffffffffffffffffffffffffffffffff16815260200190815260200160002060003373ffffffffffffffffffffffffffffffffffffffff1673ffffffffffffffffffffffffffffffffffffffff1681526020019081526020016000205482111515156108c357600080fd5b61095282600160008773ffffffffffffffffffffffffffffffffffffffff1673ffffffffffffffffffffffffffffffffffffffff16815260200190815260200160002060003373ffffffffffffffffffffffffffffffffffffffff1673ffffffffffffffffffffffffffffffffffffffff1681526020019081526020016000205461106790919063ffffffff16565b600160008673ffffffffffffffffffffffffffffffffffffffff1673ffffffffffffffffffffffffffffffffffffffff16815260200190815260200160002060003373ffffffffffffffffffffffffffffffffffffffff1673ffffffffffffffffffffffffffffffffffffffff168152602001908152602001600020819055506109dd848484611088565b600190509392505050565b6000600660009054906101000a900460ff16905090565b60008073ffffffffffffffffffffffffffffffffffffffff168373ffffffffffffffffffffffffffffffffffffffff1614151515610a3c57600080fd5b610acb82600160003373ffffffffffffffffffffffffffffffffffffffff1673ffffffffffffffffffffffffffffffffffffffff16815260200190815260200160002060008673ffffffffffffffffffffffffffffffffffffffff1673ffffffffffffffffffffffffffffffffffffffff168152602001908152602001600020546112a190919063ffffffff16565b600160003373ffffffffffffffffffffffffffffffffffffffff1673ffffffffffffffffffffffffffffffffffffffff16815260200190815260200160002060008573ffffffffffffffffffffffffffffffffffffffff1673ffffffffffffffffffffffffffffffffffffffff168152602001908152602001600020819055508273ffffffffffffffffffffffffffffffffffffffff163373ffffffffffffffffffffffffffffffffffffffff167f8c5be1e5ebec7d5bd14f71427d1e84f3dd0314c0f7b2291e5b200ac8c7c3b925600160003373ffffffffffffffffffffffffffffffffffffffff1673ffffffffffffffffffffffffffffffffffffffff16815260200190815260200160002060008773ffffffffffffffffffffffffffffffffffffffff1673ffffffffffffffffffffffffffffffffffffffff168152602001908152602001600020546040518082815260200191505060405180910390a36001905092915050565b6000610c4133610fc3565b1515610c4c57600080fd5b610c5683836112c2565b6001905092915050565b60008060008373ffffffffffffffffffffffffffffffffffffffff1673ffffffffffffffffffffffffffffffffffffffff168152602001908152602001600020549050919050565b606060058054600181600116156101000203166002900480601f016020809104026020016040519081016040528092919081815260200182805460018160011615610100020316600290048015610d405780601f10610d1557610100808354040283529160200191610d40565b820191906000526020600020905b815481529060010190602001808311610d2357829003601f168201915b5050505050905090565b610d5333610fc3565b1515610d5e57600080fd5b610d6781611400565b50565b610d733361145a565b565b60008073ffffffffffffffffffffffffffffffffffffffff168373ffffffffffffffffffffffffffffffffffffffff1614151515610db257600080fd5b610e4182600160003373ffffffffffffffffffffffffffffffffffffffff1673ffffffffffffffffffffffffffffffffffffffff16815260200190815260200160002060008673ffffffffffffffffffffffffffffffffffffffff1673ffffffffffffffffffffffffffffffffffffffff1681526020019081526020016000205461106790919063ffffffff16565b600160003373ffffffffffffffffffffffffffffffffffffffff1673ffffffffffffffffffffffffffffffffffffffff16815260200190815260200160002060008573ffffffffffffffffffffffffffffffffffffffff1673ffffffffffffffffffffffffffffffffffffffff168152602001908152602001600020819055508273ffffffffffffffffffffffffffffffffffffffff163373ffffffffffffffffffffffffffffffffffffffff167f8c5be1e5ebec7d5bd14f71427d1e84f3dd0314c0f7b2291e5b200ac8c7c3b925600160003373ffffffffffffffffffffffffffffffffffffffff1673ffffffffffffffffffffffffffffffffffffffff16815260200190815260200160002060008773ffffffffffffffffffffffffffffffffffffffff1673ffffffffffffffffffffffffffffffffffffffff168152602001908152602001600020546040518082815260200191505060405180910390a36001905092915050565b6000610fb9338484611088565b6001905092915050565b6000610fd98260036114b490919063ffffffff16565b9050919050565b6000600160008473ffffffffffffffffffffffffffffffffffffffff1673ffffffffffffffffffffffffffffffffffffffff16815260200190815260200160002060008373ffffffffffffffffffffffffffffffffffffffff1673ffffffffffffffffffffffffffffffffffffffff16815260200190815260200160002054905092915050565b60008083831115151561107957600080fd5b82840390508091505092915050565b6000808473ffffffffffffffffffffffffffffffffffffffff1673ffffffffffffffffffffffffffffffffffffffff1681526020019081526020016000205481111515156110d557600080fd5b600073ffffffffffffffffffffffffffffffffffffffff168273ffffffffffffffffffffffffffffffffffffffff161415151561111157600080fd5b611162816000808673ffffffffffffffffffffffffffffffffffffffff1673ffffffffffffffffffffffffffffffffffffffff1681526020019081526020016000205461106790919063ffffffff16565b6000808573ffffffffffffffffffffffffffffffffffffffff1673ffffffffffffffffffffffffffffffffffffffff168152602001908152602001600020819055506111f5816000808573ffffffffffffffffffffffffffffffffffffffff1673ffffffffffffffffffffffffffffffffffffffff168152602001908152602001600020546112a190919063ffffffff16565b6000808473ffffffffffffffffffffffffffffffffffffffff1673ffffffffffffffffffffffffffffffffffffffff168152602001908152602001600020819055508173ffffffffffffffffffffffffffffffffffffffff168373ffffffffffffffffffffffffffffffffffffffff167fddf252ad1be2c89b69c2b068fc378daa952ba7f163c4a11628f55a4df523b3ef836040518082815260200191505060405180910390a3505050565b60008082840190508381101515156112b857600080fd5b8091505092915050565b60008273ffffffffffffffffffffffffffffffffffffffff16141515156112e857600080fd5b6112fd816002546112a190919063ffffffff16565b600281905550611354816000808573ffffffffffffffffffffffffffffffffffffffff1673ffffffffffffffffffffffffffffffffffffffff168152602001908152602001600020546112a190919063ffffffff16565b6000808473ffffffffffffffffffffffffffffffffffffffff1673ffffffffffffffffffffffffffffffffffffffff168152602001908152602001600020819055508173ffffffffffffffffffffffffffffffffffffffff16600073ffffffffffffffffffffffffffffffffffffffff167fddf252ad1be2c89b69c2b068fc378daa952ba7f163c4a11628f55a4df523b3ef836040518082815260200191505060405180910390a35050565b61141481600361154890919063ffffffff16565b8073ffffffffffffffffffffffffffffffffffffffff167f6ae172837ea30b801fbfcdd4108aa1d5bf8ff775444fd70256b44e6bf3dfc3f660405160405180910390a250565b61146e8160036115f890919063ffffffff16565b8073ffffffffffffffffffffffffffffffffffffffff167fe94479a9f7e1952cc78f2d6baab678adc1b772d936c6583def489e524cb6669260405160405180910390a250565b60008073ffffffffffffffffffffffffffffffffffffffff168273ffffffffffffffffffffffffffffffffffffffff16141515156114f157600080fd5b8260000160008373ffffffffffffffffffffffffffffffffffffffff1673ffffffffffffffffffffffffffffffffffffffff16815260200190815260200160002060009054906101000a900460ff16905092915050565b600073ffffffffffffffffffffffffffffffffffffffff168173ffffffffffffffffffffffffffffffffffffffff161415151561158457600080fd5b61158e82826114b4565b15151561159a57600080fd5b60018260000160008373ffffffffffffffffffffffffffffffffffffffff1673ffffffffffffffffffffffffffffffffffffffff16815260200190815260200160002060006101000a81548160ff0219169083151502179055505050565b600073ffffffffffffffffffffffffffffffffffffffff168173ffffffffffffffffffffffffffffffffffffffff161415151561163457600080fd5b61163e82826114b4565b151561164957600080fd5b60008260000160008373ffffffffffffffffffffffffffffffffffffffff1673ffffffffffffffffffffffffffffffffffffffff16815260200190815260200160002060006101000a81548160ff02191690831515021790555050505600a165627a7a72305820da51e0d01fbebc25ce0f0e017c034a1943e75983c7131241a6196dbc8d5195a20029608060405234801561001057600080fd5b50604051602080610d2083398101806040528101908080519060200190929190505050336000806101000a81548173ffffffffffffffffffffffffffffffffffffffff021916908373ffffffffffffffffffffffffffffffffffffffff1602179055507f4101e71e974f68df5e9730cc223280b41654676bbb052cdcc735c3337e64d2d96000809054906101000a900473ffffffffffffffffffffffffffffffffffffffff16604051808273ffffffffffffffffffffffffffffffffffffffff1673ffffffffffffffffffffffffffffffffffffffff16815260200191505060405180910390a1600073ffffffffffffffffffffffffffffffffffffffff168173ffffffffffffffffffffffffffffffffffffffff161415151561013357600080fd5b80600260016101000a81548173ffffffffffffffffffffffffffffffffffffffff021916908373ffffffffffffffffffffffffffffffffffffffff1602179055506000600260006101000a81548160ff0219169083600281111561019357fe5b021790555050610b78806101a86000396000f3006080604052600436106100af576000357c0100000000000000000000000000000000000000000000000000000000900463ffffffff1680632348238c146100b457806338af3eed146100f757806343d726d61461014e57806351cff8d914610165578063685ca194146101a85780638c52dc41146102035780639af6549a1461021a578063c19d93fb14610231578063c6dbdf611461026a578063e3a9db1a146102c1578063f340fa0114610318575b600080fd5b3480156100c057600080fd5b506100f5600480360381019080803573ffffffffffffffffffffffffffffffffffffffff16906020019092919050505061034e565b005b34801561010357600080fd5b5061010c6104ac565b604051808273ffffffffffffffffffffffffffffffffffffffff1673ffffffffffffffffffffffffffffffffffffffff16815260200191505060405180910390f35b34801561015a57600080fd5b506101636104d6565b005b34801561017157600080fd5b506101a6600480360381019080803573ffffffffffffffffffffffffffffffffffffffff1690602001909291905050506105b6565b005b3480156101b457600080fd5b506101e9600480360381019080803573ffffffffffffffffffffffffffffffffffffffff1690602001909291905050506105d6565b604051808215151515815260200191505060405180910390f35b34801561020f57600080fd5b50610218610608565b005b34801561022657600080fd5b5061022f6106e9565b005b34801561023d57600080fd5b5061024661079e565b6040518082600281111561025657fe5b60ff16815260200191505060405180910390f35b34801561027657600080fd5b5061027f6107b5565b604051808273ffffffffffffffffffffffffffffffffffffffff1673ffffffffffffffffffffffffffffffffffffffff16815260200191505060405180910390f35b3480156102cd57600080fd5b50610302600480360381019080803573ffffffffffffffffffffffffffffffffffffffff1690602001909291905050506107de565b6040518082815260200191505060405180910390f35b61034c600480360381019080803573ffffffffffffffffffffffffffffffffffffffff169060200190929190505050610827565b005b6000809054906101000a900473ffffffffffffffffffffffffffffffffffffffff1673ffffffffffffffffffffffffffffffffffffffff163373ffffffffffffffffffffffffffffffffffffffff161415156103a957600080fd5b600073ffffffffffffffffffffffffffffffffffffffff168173ffffffffffffffffffffffffffffffffffffffff16141515156103e557600080fd5b806000806101000a81548173ffffffffffffffffffffffffffffffffffffffff021916908373ffffffffffffffffffffffffffffffffffffffff1602179055507f4101e71e974f68df5e9730cc223280b41654676bbb052cdcc735c3337e64d2d96000809054906101000a900473ffffffffffffffffffffffffffffffffffffffff16604051808273ffffffffffffffffffffffffffffffffffffffff1673ffffffffffffffffffffffffffffffffffffffff16815260200191505060405180910390a150565b6000600260019054906101000a900473ffffffffffffffffffffffffffffffffffffffff16905090565b6000809054906101000a900473ffffffffffffffffffffffffffffffffffffffff1673ffffffffffffffffffffffffffffffffffffffff163373ffffffffffffffffffffffffffffffffffffffff1614151561053157600080fd5b6000600281111561053e57fe5b600260009054906101000a900460ff16600281111561055957fe5b14151561056557600080fd5b60028060006101000a81548160ff0219169083600281111561058357fe5b02179055507f088672c3a6e342f7cd94a65ba63b79df24a8973927b4d05d803c44bbf787d12f60405160405180910390a1565b6105bf816105d6565b15156105ca57600080fd5b6105d381610867565b50565b6000600160028111156105e557fe5b600260009054906101000a900460ff16600281111561060057fe5b149050919050565b6000809054906101000a900473ffffffffffffffffffffffffffffffffffffffff1673ffffffffffffffffffffffffffffffffffffffff163373ffffffffffffffffffffffffffffffffffffffff1614151561066357600080fd5b6000600281111561067057fe5b600260009054906101000a900460ff16600281111561068b57fe5b14151561069757600080fd5b6001600260006101000a81548160ff021916908360028111156106b657fe5b02179055507f599d8e5a83cffb867d051598c4d70e805d59802d8081c1c7d6dffc5b6aca2b8960405160405180910390a1565b6002808111156106f557fe5b600260009054906101000a900460ff16600281111561071057fe5b14151561071c57600080fd5b600260019054906101000a900473ffffffffffffffffffffffffffffffffffffffff1673ffffffffffffffffffffffffffffffffffffffff166108fc3073ffffffffffffffffffffffffffffffffffffffff16319081150290604051600060405180830381858888f1935050505015801561079b573d6000803e3d6000fd5b50565b6000600260009054906101000a900460ff16905090565b60008060009054906101000a900473ffffffffffffffffffffffffffffffffffffffff16905090565b6000600160008373ffffffffffffffffffffffffffffffffffffffff1673ffffffffffffffffffffffffffffffffffffffff168152602001908152602001600020549050919050565b6000600281111561083457fe5b600260009054906101000a900460ff16600281111561084f57fe5b14151561085b57600080fd5b610864816109e4565b50565b60008060009054906101000a900473ffffffffffffffffffffffffffffffffffffffff1673ffffffffffffffffffffffffffffffffffffffff163373ffffffffffffffffffffffffffffffffffffffff161415156108c457600080fd5b600160008373ffffffffffffffffffffffffffffffffffffffff1673ffffffffffffffffffffffffffffffffffffffff1681526020019081526020016000205490506000600160008473ffffffffffffffffffffffffffffffffffffffff1673ffffffffffffffffffffffffffffffffffffffff168152602001908152602001600020819055508173ffffffffffffffffffffffffffffffffffffffff166108fc829081150290604051600060405180830381858888f19350505050158015610991573d6000803e3d6000fd5b508173ffffffffffffffffffffffffffffffffffffffff167f7084f5476618d8e60b11ef0d7d3f06914655adb8793e28ff7f018d4c76d505d5826040518082815260200191505060405180910390a25050565b60008060009054906101000a900473ffffffffffffffffffffffffffffffffffffffff1673ffffffffffffffffffffffffffffffffffffffff163373ffffffffffffffffffffffffffffffffffffffff16141515610a4157600080fd5b349050610a9681600160008573ffffffffffffffffffffffffffffffffffffffff1673ffffffffffffffffffffffffffffffffffffffff16815260200190815260200160002054610b2b90919063ffffffff16565b600160008473ffffffffffffffffffffffffffffffffffffffff1673ffffffffffffffffffffffffffffffffffffffff168152602001908152602001600020819055508173ffffffffffffffffffffffffffffffffffffffff167f2da466a7b24304f47e87fa2e1e5a81b9831ce54fec19055ce277ca2f39ba42c4826040518082815260200191505060405180910390a25050565b6000808284019050838110151515610b4257600080fd5b80915050929150505600a165627a7a72305820b983ed450ae876d3d2ec4d9042107c35709d71981088079ac1f9ac150b04e3750029",
  "source": "pragma solidity ^0.4.25;\r\n\r\nimport \"./CarToken.sol\";\r\nimport \"openzeppelin-solidity/contracts/math/SafeMath.sol\";\r\nimport \"openzeppelin-solidity/contracts/ownership/Ownable.sol\";\r\nimport \"openzeppelin-solidity/contracts/crowdsale/validation/CappedCrowdsale.sol\";\r\nimport \"openzeppelin-solidity/contracts/crowdsale/distribution/RefundableCrowdsale.sol\";\r\nimport \"openzeppelin-solidity/contracts/crowdsale/emission/MintedCrowdsale.sol\";\r\nimport \"openzeppelin-solidity/contracts/token/ERC20/ERC20Mintable.sol\";\r\nimport \"openzeppelin-solidity/contracts/token/ERC20/IERC20.sol\";\r\n\r\ncontract CarTokenCrowdsale is CappedCrowdsale, MintedCrowdsale, RefundableCrowdsale {\r\n  using SafeMath for uint;\r\n\r\n  uint public constant CROWDSALE_DURATION = 2 weeks;\r\n  uint public constant DEFAULT_RATE = 100;\r\n  uint public constant PUBLIC_SALE_1_WEEK_RATE = 140;\r\n  uint public constant SOFT_CAP = 10 ether;\r\n  uint public constant HARD_CAP = 100 ether;\r\n  uint public constant MIN_CONTRIBUTION_AMOUNT = 10 finney;\r\n  uint public constant OWNER_PERCENTAGE_TOKENS = 10;\r\n\r\n  uint public firstWeekPublicSaleEndDate;\r\n\r\n  constructor(uint _startDate, uint _endDate, address _wallet, string _tokenName, string _tokenSymbol, uint8 _tokenDecimals) public\r\n    CappedCrowdsale(HARD_CAP)\r\n    RefundableCrowdsale(SOFT_CAP)\r\n    TimedCrowdsale(_startDate, _endDate)\r\n    Crowdsale(DEFAULT_RATE, _wallet, new CarToken(_tokenName, _tokenSymbol, _tokenDecimals))\r\n    {\r\n      require(SOFT_CAP <= HARD_CAP, \"HARD_CAP is not bigger than SOFT_CAP\");\r\n      require(_endDate.sub(_startDate) == CROWDSALE_DURATION, \"Crowdsale duration is not 2 weeks\");\r\n\r\n      firstWeekPublicSaleEndDate = _startDate.add(1 weeks);\r\n    }\r\n\r\n  /**\r\n   * @dev Extend parent behavior requiring purchase to respect the minimum contribution amount.\r\n   * @param _beneficiary Token purchaser\r\n   * @param _weiAmount Amount of wei contributed\r\n   */\r\n  function _preValidatePurchase(address _beneficiary, uint256 _weiAmount) internal view {\r\n    require(_weiAmount >= MIN_CONTRIBUTION_AMOUNT, \"Your have to pay minimum of 10 finney to buy tokens\");\r\n\r\n    super._preValidatePurchase(_beneficiary, _weiAmount);\r\n  }\r\n\r\n   /**\r\n   * @dev Overrided to extend the way in which ether is converted to tokens.\r\n   * @param _weiAmount Value in wei to be converted into tokens\r\n   * @return Number of tokens that can be purchased with the specified _weiAmount\r\n   */\r\n  function _getTokenAmount(uint256 _weiAmount) internal view returns(uint256) {\r\n    if(now <= firstWeekPublicSaleEndDate){        \r\n      return _weiAmount.mul(PUBLIC_SALE_1_WEEK_RATE);\r\n    }\r\n\r\n    return _weiAmount.mul(DEFAULT_RATE);\r\n  }\r\n\r\n   /**\r\n   * @dev Overrided FinalizableCrowdsale's _finalization function to mint tokens to the contract owner.\r\n   */\r\n  function _finalization() internal {\r\n    if(goalReached()) {\r\n      uint256 ownerTokenAmount = ((IERC20(token()).totalSupply()).mul(OWNER_PERCENTAGE_TOKENS)).div(100);\r\n      ERC20Mintable(address(token())).mint(wallet(), ownerTokenAmount);\r\n    }\r\n\r\n    super._finalization();\r\n  }\r\n}",
  "sourcePath": "D:\\Blockchain Dev Camp June\\LimeAcademy\\cars-etherlime\\contracts\\CarTokenCrowdsale.sol",
  "compiler": {
    "name": "solc",
    "version": "0.4.25+commit.59dbf8f1.Emscripten.clang"
  },
  "schemaVersion": "0.9.8",
  "updatedAt": "2018-11-15T16:15:22.202Z"
}