{
  "contractName": "Cars",
  "abi": [
    {
      "constant": false,
      "inputs": [],
      "name": "renounceOwnership",
      "outputs": [],
      "payable": false,
      "stateMutability": "nonpayable",
      "type": "function"
    },
    {
      "constant": true,
      "inputs": [],
      "name": "owner",
      "outputs": [
        {
          "name": "",
          "type": "address"
        }
      ],
      "payable": false,
      "stateMutability": "view",
      "type": "function"
    },
    {
      "constant": true,
      "inputs": [],
      "name": "isOwner",
      "outputs": [
        {
          "name": "",
          "type": "bool"
        }
      ],
      "payable": false,
      "stateMutability": "view",
      "type": "function"
    },
    {
      "constant": true,
      "inputs": [],
      "name": "oracleContract",
      "outputs": [
        {
          "name": "",
          "type": "address"
        }
      ],
      "payable": false,
      "stateMutability": "view",
      "type": "function"
    },
    {
      "constant": true,
      "inputs": [],
      "name": "carToken",
      "outputs": [
        {
          "name": "",
          "type": "address"
        }
      ],
      "payable": false,
      "stateMutability": "view",
      "type": "function"
    },
    {
      "constant": false,
      "inputs": [
        {
          "name": "newOwner",
          "type": "address"
        }
      ],
      "name": "transferOwnership",
      "outputs": [],
      "payable": false,
      "stateMutability": "nonpayable",
      "type": "function"
    },
    {
      "inputs": [
        {
          "name": "_carTokenContract",
          "type": "address"
        },
        {
          "name": "_oracleContract",
          "type": "address"
        }
      ],
      "payable": false,
      "stateMutability": "nonpayable",
      "type": "constructor"
    },
    {
      "anonymous": false,
      "inputs": [
        {
          "indexed": false,
          "name": "_carIndex",
          "type": "uint256"
        },
        {
          "indexed": false,
          "name": "_make",
          "type": "bytes32"
        },
        {
          "indexed": false,
          "name": "_model",
          "type": "bytes32"
        },
        {
          "indexed": false,
          "name": "_initialPrice",
          "type": "uint256"
        }
      ],
      "name": "CarAddedByContractOwner",
      "type": "event"
    },
    {
      "anonymous": false,
      "inputs": [
        {
          "indexed": false,
          "name": "_buyer",
          "type": "address"
        },
        {
          "indexed": false,
          "name": "_price",
          "type": "uint256"
        },
        {
          "indexed": false,
          "name": "_make",
          "type": "bytes32"
        },
        {
          "indexed": false,
          "name": "_model",
          "type": "bytes32"
        }
      ],
      "name": "CarBoughtFromContractOwner",
      "type": "event"
    },
    {
      "anonymous": false,
      "inputs": [
        {
          "indexed": false,
          "name": "_buyer",
          "type": "address"
        },
        {
          "indexed": false,
          "name": "_from",
          "type": "address"
        },
        {
          "indexed": false,
          "name": "_price",
          "type": "uint256"
        },
        {
          "indexed": false,
          "name": "_make",
          "type": "bytes32"
        },
        {
          "indexed": false,
          "name": "_model",
          "type": "bytes32"
        }
      ],
      "name": "CarBoughtFromSeller",
      "type": "event"
    },
    {
      "anonymous": false,
      "inputs": [
        {
          "indexed": false,
          "name": "_amount",
          "type": "uint256"
        },
        {
          "indexed": false,
          "name": "_timestamp",
          "type": "uint256"
        }
      ],
      "name": "ProfitWithdrawal",
      "type": "event"
    },
    {
      "anonymous": false,
      "inputs": [
        {
          "indexed": true,
          "name": "previousOwner",
          "type": "address"
        },
        {
          "indexed": true,
          "name": "newOwner",
          "type": "address"
        }
      ],
      "name": "OwnershipTransferred",
      "type": "event"
    },
    {
      "constant": false,
      "inputs": [
        {
          "name": "_make",
          "type": "bytes32"
        },
        {
          "name": "_model",
          "type": "bytes32"
        },
        {
          "name": "_initialPrice",
          "type": "uint256"
        },
        {
          "name": "_imageHash",
          "type": "bytes32"
        }
      ],
      "name": "addCar",
      "outputs": [],
      "payable": false,
      "stateMutability": "nonpayable",
      "type": "function"
    },
    {
      "constant": false,
      "inputs": [
        {
          "name": "_index",
          "type": "uint256"
        },
        {
          "name": "_tokens",
          "type": "uint256"
        }
      ],
      "name": "buyCarFromContractOwner",
      "outputs": [],
      "payable": false,
      "stateMutability": "nonpayable",
      "type": "function"
    },
    {
      "constant": false,
      "inputs": [
        {
          "name": "_index",
          "type": "uint256"
        },
        {
          "name": "_tokens",
          "type": "uint256"
        }
      ],
      "name": "buyCarFromSeller",
      "outputs": [],
      "payable": false,
      "stateMutability": "nonpayable",
      "type": "function"
    },
    {
      "constant": true,
      "inputs": [
        {
          "name": "_index",
          "type": "uint256"
        }
      ],
      "name": "getCarInfo",
      "outputs": [
        {
          "name": "_carMake",
          "type": "bytes32"
        },
        {
          "name": "_carModel",
          "type": "bytes32"
        },
        {
          "name": "_carOwner",
          "type": "address"
        },
        {
          "name": "_carPrice",
          "type": "uint256"
        },
        {
          "name": "_isSecondHand",
          "type": "bool"
        },
        {
          "name": "_imageHash",
          "type": "bytes32"
        }
      ],
      "payable": false,
      "stateMutability": "view",
      "type": "function"
    },
    {
      "constant": true,
      "inputs": [
        {
          "name": "_index",
          "type": "uint256"
        }
      ],
      "name": "getCarPriceInUSD",
      "outputs": [
        {
          "name": "_carPriceInUSD",
          "type": "uint256"
        }
      ],
      "payable": false,
      "stateMutability": "view",
      "type": "function"
    },
    {
      "constant": true,
      "inputs": [
        {
          "name": "_address",
          "type": "address"
        }
      ],
      "name": "getAddressCars",
      "outputs": [
        {
          "name": "",
          "type": "uint256[]"
        }
      ],
      "payable": false,
      "stateMutability": "view",
      "type": "function"
    },
    {
      "constant": false,
      "inputs": [],
      "name": "withdrawProfit",
      "outputs": [],
      "payable": false,
      "stateMutability": "nonpayable",
      "type": "function"
    },
    {
      "constant": true,
      "inputs": [
        {
          "name": "_address",
          "type": "address"
        }
      ],
      "name": "getTotalSpendingsByAddress",
      "outputs": [
        {
          "name": "",
          "type": "uint256"
        }
      ],
      "payable": false,
      "stateMutability": "view",
      "type": "function"
    },
    {
      "constant": true,
      "inputs": [],
      "name": "getCarsCount",
      "outputs": [
        {
          "name": "",
          "type": "uint256"
        }
      ],
      "payable": false,
      "stateMutability": "view",
      "type": "function"
    }
  ],
  "bytecode": "0x608060405234801561001057600080fd5b506040516040806129328339810180604052810190808051906020019092919080519060200190929190505050336000806101000a81548173ffffffffffffffffffffffffffffffffffffffff021916908373ffffffffffffffffffffffffffffffffffffffff1602179055506000809054906101000a900473ffffffffffffffffffffffffffffffffffffffff1673ffffffffffffffffffffffffffffffffffffffff16600073ffffffffffffffffffffffffffffffffffffffff167f8be0079c531659141344cd1fd0a4f28419497f9722a3daafe3b4186f6b6457e060405160405180910390a381600260006101000a81548173ffffffffffffffffffffffffffffffffffffffff021916908373ffffffffffffffffffffffffffffffffffffffff16021790555080600360006101000a81548173ffffffffffffffffffffffffffffffffffffffff021916908373ffffffffffffffffffffffffffffffffffffffff16021790555050506127a68061018c6000396000f3006080604052600436106100db576000357c0100000000000000000000000000000000000000000000000000000000900463ffffffff168063210a98ce146100e057806351b3d7571461017857806356ccbcc4146101af578063629c073814610206578063715018a61461025d5780638da5cb5b146102745780638f32d59b146102cb578063959499b6146102fa578063bd3d4dae14610311578063bece75321461033c578063c80f84de14610393578063d01af8bc146103ca578063d43e85ac14610476578063d530bf33146104b7578063f2fde38b1461050e575b600080fd5b3480156100ec57600080fd5b50610121600480360381019080803573ffffffffffffffffffffffffffffffffffffffff169060200190929190505050610551565b6040518080602001828103825283818151815260200191508051906020019060200280838360005b83811015610164578082015181840152602081019050610149565b505050509050019250505060405180910390f35b34801561018457600080fd5b506101ad60048036038101908080359060200190929190803590602001909291905050506105e8565b005b3480156101bb57600080fd5b5061020460048036038101908080356000191690602001909291908035600019169060200190929190803590602001909291908035600019169060200190929190505050610d31565b005b34801561021257600080fd5b50610247600480360381019080803573ffffffffffffffffffffffffffffffffffffffff1690602001909291905050506112c2565b6040518082815260200191505060405180910390f35b34801561026957600080fd5b5061027261130b565b005b34801561028057600080fd5b506102896113dd565b604051808273ffffffffffffffffffffffffffffffffffffffff1673ffffffffffffffffffffffffffffffffffffffff16815260200191505060405180910390f35b3480156102d757600080fd5b506102e0611406565b604051808215151515815260200191505060405180910390f35b34801561030657600080fd5b5061030f61145d565b005b34801561031d57600080fd5b50610326611737565b6040518082815260200191505060405180910390f35b34801561034857600080fd5b50610351611744565b604051808273ffffffffffffffffffffffffffffffffffffffff1673ffffffffffffffffffffffffffffffffffffffff16815260200191505060405180910390f35b34801561039f57600080fd5b506103c8600480360381019080803590602001909291908035906020019092919050505061176a565b005b3480156103d657600080fd5b506103f560048036038101908080359060200190929190505050611f5d565b60405180876000191660001916815260200186600019166000191681526020018573ffffffffffffffffffffffffffffffffffffffff1673ffffffffffffffffffffffffffffffffffffffff168152602001848152602001831515151581526020018260001916600019168152602001965050505050505060405180910390f35b34801561048257600080fd5b506104a160048036038101908080359060200190929190505050612100565b6040518082815260200191505060405180910390f35b3480156104c357600080fd5b506104cc612283565b604051808273ffffffffffffffffffffffffffffffffffffffff1673ffffffffffffffffffffffffffffffffffffffff16815260200191505060405180910390f35b34801561051a57600080fd5b5061054f600480360381019080803573ffffffffffffffffffffffffffffffffffffffff1690602001909291905050506122a9565b005b6060600460008373ffffffffffffffffffffffffffffffffffffffff1673ffffffffffffffffffffffffffffffffffffffff1681526020019081526020016000208054806020026020016040519081016040528092919081815260200182805480156105dc57602002820191906000526020600020905b8154815260200190600101908083116105c8575b50505050509050919050565b60008083600181016001805490501015151561066c576040517f08c379a00000000000000000000000000000000000000000000000000000000081526004018080602001828103825260138152602001807f43617220646f6573206e6f742065786973742e0000000000000000000000000081525060200191505060405180910390fd5b60018581548110151561067b57fe5b906000526020600020906006020192506106936113dd565b73ffffffffffffffffffffffffffffffffffffffff168360020160009054906101000a900473ffffffffffffffffffffffffffffffffffffffff1673ffffffffffffffffffffffffffffffffffffffff1614151561077f576040517f08c379a00000000000000000000000000000000000000000000000000000000081526004018080602001828103825260278152602001807f436f6e7472616374206f776e6572206973206e6f74206f776e6572206f66207481526020017f6865206361722e0000000000000000000000000000000000000000000000000081525060400191505060405180910390fd5b600015158360040160009054906101000a900460ff16151514151561080c576040517f08c379a00000000000000000000000000000000000000000000000000000000081526004018080602001828103825260178152602001807f54686520636172206973207365636f6e642d68616e642e00000000000000000081525060200191505060405180910390fd5b6108146113dd565b73ffffffffffffffffffffffffffffffffffffffff163373ffffffffffffffffffffffffffffffffffffffff16141515156108dd576040517f08c379a00000000000000000000000000000000000000000000000000000000081526004018080602001828103825260348152602001807f436f6e7472616374206f776e6572206973206e6f7420616c6c6f77656420746f81526020017f2063616c6c20746869732066756e6374696f6e2e00000000000000000000000081525060400191505060405180910390fd5b8260030154841015151561097f576040517f08c379a00000000000000000000000000000000000000000000000000000000081526004018080602001828103825260288152602001807f54686520616d6f756e74206f6620746f6b656e732073656e74206973206e6f7481526020017f20656e6f7567682e00000000000000000000000000000000000000000000000081525060400191505060405180910390fd5b6109ad8360020160009054906101000a900473ffffffffffffffffffffffffffffffffffffffff16866122c8565b600460003373ffffffffffffffffffffffffffffffffffffffff1673ffffffffffffffffffffffffffffffffffffffff16815260200190815260200160002085908060018154018082558091505090600182039060005260206000200160009091929091909150559150600182036005600087815260200190815260200160002081905550338360020160006101000a81548173ffffffffffffffffffffffffffffffffffffffff021916908373ffffffffffffffffffffffffffffffffffffffff16021790555083836003018190555060018360040160006101000a81548160ff021916908315150217905550610aed84600660003373ffffffffffffffffffffffffffffffffffffffff1673ffffffffffffffffffffffffffffffffffffffff1681526020019081526020016000205461252d90919063ffffffff16565b600660003373ffffffffffffffffffffffffffffffffffffffff1673ffffffffffffffffffffffffffffffffffffffff16815260200190815260200160002081905550600260009054906101000a900473ffffffffffffffffffffffffffffffffffffffff1673ffffffffffffffffffffffffffffffffffffffff166323b872dd3330876040518463ffffffff167c0100000000000000000000000000000000000000000000000000000000028152600401808473ffffffffffffffffffffffffffffffffffffffff1673ffffffffffffffffffffffffffffffffffffffff1681526020018373ffffffffffffffffffffffffffffffffffffffff1673ffffffffffffffffffffffffffffffffffffffff1681526020018281526020019350505050602060405180830381600087803b158015610c2957600080fd5b505af1158015610c3d573d6000803e3d6000fd5b505050506040513d6020811015610c5357600080fd5b81019080805190602001909291905050501515610c6f57600080fd5b7f97b792977a6fc6790e61ca8db06276fbe431c867ccb2cef151d5d48e433fab028360020160009054906101000a900473ffffffffffffffffffffffffffffffffffffffff16846003015485600001548660010154604051808573ffffffffffffffffffffffffffffffffffffffff1673ffffffffffffffffffffffffffffffffffffffff1681526020018481526020018360001916600019168152602001826000191660001916815260200194505050505060405180910390a15050505050565b610d396126d1565b600080610d44611406565b1515610d4f57600080fd5b60007f010000000000000000000000000000000000000000000000000000000000000002876000602081101515610d8257fe5b1a7f0100000000000000000000000000000000000000000000000000000000000000027effffffffffffffffffffffffffffffffffffffffffffffffffffffffffffff191614151515610e3d576040517f08c379a00000000000000000000000000000000000000000000000000000000081526004018080602001828103825260118152602001807f496e76616c696420636172206d616b652e00000000000000000000000000000081525060200191505060405180910390fd5b60007f010000000000000000000000000000000000000000000000000000000000000002866000602081101515610e7057fe5b1a7f0100000000000000000000000000000000000000000000000000000000000000027effffffffffffffffffffffffffffffffffffffffffffffffffffffffffffff191614151515610f2b576040517f08c379a00000000000000000000000000000000000000000000000000000000081526004018080602001828103825260128152602001807f496e76616c696420636172206d6f64656c2e000000000000000000000000000081525060200191505060405180910390fd5b600085111515610fa3576040517f08c379a000000000000000000000000000000000000000000000000000000000815260040180806020018281038252601a8152602001807f496e76616c696420696e697469616c206361722070726963652e00000000000081525060200191505060405180910390fd5b60007f010000000000000000000000000000000000000000000000000000000000000002846000602081101515610fd657fe5b1a7f0100000000000000000000000000000000000000000000000000000000000000027effffffffffffffffffffffffffffffffffffffffffffffffffffffffffffff191614151515611091576040517f08c379a00000000000000000000000000000000000000000000000000000000081526004018080602001828103825260178152602001807f496e76616c69642063617220696d61676520686173682e00000000000000000081525060200191505060405180910390fd5b60c06040519081016040528088600019168152602001876000191681526020016110b96113dd565b73ffffffffffffffffffffffffffffffffffffffff168152602001868152602001600015158152602001856000191681525092506001808490806001815401808255809150509060018203906000526020600020906006020160009091929091909150600082015181600001906000191690556020820151816001019060001916905560408201518160020160006101000a81548173ffffffffffffffffffffffffffffffffffffffff021916908373ffffffffffffffffffffffffffffffffffffffff1602179055506060820151816003015560808201518160040160006101000a81548160ff02191690831515021790555060a082015181600501906000191690555050039150600460006111ce6113dd565b73ffffffffffffffffffffffffffffffffffffffff1673ffffffffffffffffffffffffffffffffffffffff168152602001908152602001600020829080600181540180825580915050906001820390600052602060002001600090919290919091505590506001810360056000848152602001908152602001600020819055507fa7f08ec5f96fecd8436475eb6d822684f492146e912af10dcd817135662c536682846000015185602001518660600151604051808581526020018460001916600019168152602001836000191660001916815260200182815260200194505050505060405180910390a150505050505050565b6000600660008373ffffffffffffffffffffffffffffffffffffffff1673ffffffffffffffffffffffffffffffffffffffff168152602001908152602001600020549050919050565b611313611406565b151561131e57600080fd5b600073ffffffffffffffffffffffffffffffffffffffff166000809054906101000a900473ffffffffffffffffffffffffffffffffffffffff1673ffffffffffffffffffffffffffffffffffffffff167f8be0079c531659141344cd1fd0a4f28419497f9722a3daafe3b4186f6b6457e060405160405180910390a360008060006101000a81548173ffffffffffffffffffffffffffffffffffffffff021916908373ffffffffffffffffffffffffffffffffffffffff160217905550565b60008060009054906101000a900473ffffffffffffffffffffffffffffffffffffffff16905090565b60008060009054906101000a900473ffffffffffffffffffffffffffffffffffffffff1673ffffffffffffffffffffffffffffffffffffffff163373ffffffffffffffffffffffffffffffffffffffff1614905090565b600080611468611406565b151561147357600080fd5b600260009054906101000a900473ffffffffffffffffffffffffffffffffffffffff1691508173ffffffffffffffffffffffffffffffffffffffff166370a08231306040518263ffffffff167c0100000000000000000000000000000000000000000000000000000000028152600401808273ffffffffffffffffffffffffffffffffffffffff1673ffffffffffffffffffffffffffffffffffffffff168152602001915050602060405180830381600087803b15801561153357600080fd5b505af1158015611547573d6000803e3d6000fd5b505050506040513d602081101561155d57600080fd5b8101908080519060200190929190505050905060008111151561160e576040517f08c379a00000000000000000000000000000000000000000000000000000000081526004018080602001828103825260268152602001807f54686520636f6e747261637420646f6573206e6f74206861766520616e79207081526020017f726f6669742e000000000000000000000000000000000000000000000000000081525060400191505060405180910390fd5b8173ffffffffffffffffffffffffffffffffffffffff1663a9059cbb6116326113dd565b836040518363ffffffff167c0100000000000000000000000000000000000000000000000000000000028152600401808373ffffffffffffffffffffffffffffffffffffffff1673ffffffffffffffffffffffffffffffffffffffff16815260200182815260200192505050602060405180830381600087803b1580156116b857600080fd5b505af11580156116cc573d6000803e3d6000fd5b505050506040513d60208110156116e257600080fd5b8101908080519060200190929190505050507feedac42b0023e5321fc6be2202c057bca3282debcff74a9748e2ad75029f16278142604051808381526020018281526020019250505060405180910390a15050565b6000600180549050905090565b600360009054906101000a900473ffffffffffffffffffffffffffffffffffffffff1681565b6000806000808560018101600180549050101515156117f1576040517f08c379a00000000000000000000000000000000000000000000000000000000081526004018080602001828103825260138152602001807f43617220646f6573206e6f742065786973742e0000000000000000000000000081525060200191505060405180910390fd5b60018781548110151561180057fe5b906000526020600020906006020194508460020160009054906101000a900473ffffffffffffffffffffffffffffffffffffffff169350600115158560040160009054906101000a900460ff1615151415156118ea576040517f08c379a00000000000000000000000000000000000000000000000000000000081526004018080602001828103825260288152602001807f5468697320636172206973206f776e65642062792074686520636f6e7472616381526020017f74206f776e65722e00000000000000000000000000000000000000000000000081525060400191505060405180910390fd5b8373ffffffffffffffffffffffffffffffffffffffff163373ffffffffffffffffffffffffffffffffffffffff16141515156119b4576040517f08c379a00000000000000000000000000000000000000000000000000000000081526004018080602001828103825260368152602001807f546865206f776e6572206f6620746865206361722063616e6e6f74206275792081526020017f612063617220686520616c7265616479206f776e732e0000000000000000000081525060400191505060405180910390fd5b6119cc6002866003015461254e90919063ffffffff16565b8610151515611a69576040517f08c379a00000000000000000000000000000000000000000000000000000000081526004018080602001828103825260398152602001807f596f75206d75737420706179206174206c65617374207477696365207468652081526020017f63757272656e74207072696365206f6620746865206361722e0000000000000081525060400191505060405180910390fd5b611a7384886122c8565b600460003373ffffffffffffffffffffffffffffffffffffffff1673ffffffffffffffffffffffffffffffffffffffff16815260200190815260200160002087908060018154018082558091505090600182039060005260206000200160009091929091909150559250600183036005600089815260200190815260200160002081905550611b38611b256002611b1788600301548a61258c90919063ffffffff16565b6125ad90919063ffffffff16565b866003015461252d90919063ffffffff16565b9150338560020160006101000a81548173ffffffffffffffffffffffffffffffffffffffff021916908373ffffffffffffffffffffffffffffffffffffffff160217905550858560030181905550611bd886600660003373ffffffffffffffffffffffffffffffffffffffff1673ffffffffffffffffffffffffffffffffffffffff1681526020019081526020016000205461252d90919063ffffffff16565b600660003373ffffffffffffffffffffffffffffffffffffffff1673ffffffffffffffffffffffffffffffffffffffff16815260200190815260200160002081905550600260009054906101000a900473ffffffffffffffffffffffffffffffffffffffff1673ffffffffffffffffffffffffffffffffffffffff166323b872dd3330896040518463ffffffff167c0100000000000000000000000000000000000000000000000000000000028152600401808473ffffffffffffffffffffffffffffffffffffffff1673ffffffffffffffffffffffffffffffffffffffff1681526020018373ffffffffffffffffffffffffffffffffffffffff1673ffffffffffffffffffffffffffffffffffffffff1681526020018281526020019350505050602060405180830381600087803b158015611d1457600080fd5b505af1158015611d28573d6000803e3d6000fd5b505050506040513d6020811015611d3e57600080fd5b81019080805190602001909291905050501515611d5a57600080fd5b600260009054906101000a900473ffffffffffffffffffffffffffffffffffffffff1673ffffffffffffffffffffffffffffffffffffffff1663a9059cbb85846040518363ffffffff167c0100000000000000000000000000000000000000000000000000000000028152600401808373ffffffffffffffffffffffffffffffffffffffff1673ffffffffffffffffffffffffffffffffffffffff16815260200182815260200192505050602060405180830381600087803b158015611e1f57600080fd5b505af1158015611e33573d6000803e3d6000fd5b505050506040513d6020811015611e4957600080fd5b81019080805190602001909291905050501515611e6557600080fd5b7fc0e0cb9a6bd116e9b9b19eb568f8fd24209b65d86955f8a6369f862169aeb31b8560020160009054906101000a900473ffffffffffffffffffffffffffffffffffffffff1685876003015488600001548960010154604051808673ffffffffffffffffffffffffffffffffffffffff1673ffffffffffffffffffffffffffffffffffffffff1681526020018573ffffffffffffffffffffffffffffffffffffffff1673ffffffffffffffffffffffffffffffffffffffff168152602001848152602001836000191660001916815260200182600019166000191681526020019550505050505060405180910390a150505050505050565b600080600080600080611f6e6126d1565b876001810160018054905010151515611fef576040517f08c379a00000000000000000000000000000000000000000000000000000000081526004018080602001828103825260138152602001807f43617220646f6573206e6f742065786973742e0000000000000000000000000081525060200191505060405180910390fd5b600189815481101515611ffe57fe5b906000526020600020906006020160c060405190810160405290816000820154600019166000191681526020016001820154600019166000191681526020016002820160009054906101000a900473ffffffffffffffffffffffffffffffffffffffff1673ffffffffffffffffffffffffffffffffffffffff1673ffffffffffffffffffffffffffffffffffffffff168152602001600382015481526020016004820160009054906101000a900460ff161515151581526020016005820154600019166000191681525050915081604001519550816060015194508160000151975081602001519650816080015193508160a001519250505091939550919395565b600080826001810160018054905010151515612184576040517f08c379a00000000000000000000000000000000000000000000000000000000081526004018080602001828103825260138152602001807f43617220646f6573206e6f742065786973742e0000000000000000000000000081525060200191505060405180910390fd5b600360009054906101000a900473ffffffffffffffffffffffffffffffffffffffff1673ffffffffffffffffffffffffffffffffffffffff1663891a8b856040518163ffffffff167c0100000000000000000000000000000000000000000000000000000000028152600401602060405180830381600087803b15801561220a57600080fd5b505af115801561221e573d6000803e3d6000fd5b505050506040513d602081101561223457600080fd5b8101908080519060200190929190505050915061227a8260018681548110151561225a57fe5b90600052602060002090600602016003015461254e90919063ffffffff16565b92505050919050565b600260009054906101000a900473ffffffffffffffffffffffffffffffffffffffff1681565b6122b1611406565b15156122bc57600080fd5b6122c5816125d7565b50565b6000600560008381526020019081526020016000205490506001600460008573ffffffffffffffffffffffffffffffffffffffff1673ffffffffffffffffffffffffffffffffffffffff1681526020019081526020016000208054905011156124d5578060056000600460008773ffffffffffffffffffffffffffffffffffffffff1673ffffffffffffffffffffffffffffffffffffffff1681526020019081526020016000206001600460008973ffffffffffffffffffffffffffffffffffffffff1673ffffffffffffffffffffffffffffffffffffffff16815260200190815260200160002080549050038154811015156123c157fe5b9060005260206000200154815260200190815260200160002081905550600460008473ffffffffffffffffffffffffffffffffffffffff1673ffffffffffffffffffffffffffffffffffffffff1681526020019081526020016000206001600460008673ffffffffffffffffffffffffffffffffffffffff1673ffffffffffffffffffffffffffffffffffffffff168152602001908152602001600020805490500381548110151561246f57fe5b9060005260206000200154600460008573ffffffffffffffffffffffffffffffffffffffff1673ffffffffffffffffffffffffffffffffffffffff168152602001908152602001600020828154811015156124c657fe5b90600052602060002001819055505b600460008473ffffffffffffffffffffffffffffffffffffffff1673ffffffffffffffffffffffffffffffffffffffff1681526020019081526020016000208054809190600190036125279190612729565b50505050565b600080828401905083811015151561254457600080fd5b8091505092915050565b60008060008414156125635760009150612585565b828402905082848281151561257457fe5b0414151561258157600080fd5b8091505b5092915050565b60008083831115151561259e57600080fd5b82840390508091505092915050565b6000806000831115156125bf57600080fd5b82848115156125ca57fe5b0490508091505092915050565b600073ffffffffffffffffffffffffffffffffffffffff168173ffffffffffffffffffffffffffffffffffffffff161415151561261357600080fd5b8073ffffffffffffffffffffffffffffffffffffffff166000809054906101000a900473ffffffffffffffffffffffffffffffffffffffff1673ffffffffffffffffffffffffffffffffffffffff167f8be0079c531659141344cd1fd0a4f28419497f9722a3daafe3b4186f6b6457e060405160405180910390a3806000806101000a81548173ffffffffffffffffffffffffffffffffffffffff021916908373ffffffffffffffffffffffffffffffffffffffff16021790555050565b60c0604051908101604052806000801916815260200160008019168152602001600073ffffffffffffffffffffffffffffffffffffffff16815260200160008152602001600015158152602001600080191681525090565b8154818355818111156127505781836000526020600020918201910161274f9190612755565b5b505050565b61277791905b8082111561277357600081600090555060010161275b565b5090565b905600a165627a7a72305820e864be52d766efa162e7601b85d69ea245ca04b6d0c957bb1ddf3522381634170029",
  "source": "pragma solidity ^0.4.25;\r\n\r\nimport \"./Oracle.sol\";\r\nimport \"openzeppelin-solidity/contracts/ownership/Ownable.sol\";\r\nimport \"openzeppelin-solidity/contracts/math/SafeMath.sol\";\r\nimport \"openzeppelin-solidity/contracts/token/ERC20/ERC20.sol\";\r\n\r\ncontract Cars is Ownable {\r\n    using SafeMath for uint;\r\n\r\n    struct Car {\r\n        bytes32 make;\r\n        bytes32 model;\r\n        address owner;\r\n        uint price;\r\n        bool isSecondHand;\r\n        bytes32 imageHash;\r\n    }\r\n    \r\n    Car[] private cars;\r\n    address public carToken;\r\n    address public oracleContract;\r\n    \r\n    mapping(address => uint[]) addressCars;\r\n    mapping(uint => uint) carIndexPosition;\r\n    mapping(address => uint) totalTokensSpentByAddress;\r\n\r\n    constructor(address _carTokenContract, address _oracleContract) public {\r\n        carToken = _carTokenContract;\r\n        oracleContract = _oracleContract;\r\n    }\r\n    \r\n    event CarAddedByContractOwner(uint _carIndex, bytes32 _make, bytes32 _model, uint _initialPrice);\r\n    event CarBoughtFromContractOwner(address _buyer, uint256 _price, bytes32 _make, bytes32 _model);\r\n    event CarBoughtFromSeller(address _buyer, address _from, uint _price, bytes32 _make, bytes32 _model);\r\n    event ProfitWithdrawal(uint _amount, uint _timestamp);\r\n\r\n    modifier onlyExistingCar(uint _index) {\r\n        require(cars.length >= _index + 1, \"Car does not exist.\");\r\n        _;\r\n    }\r\n    \r\n    function addCar(bytes32 _make, bytes32 _model, uint _initialPrice, bytes32 _imageHash) public onlyOwner {\r\n        require(_make[0] != 0, \"Invalid car make.\");\r\n        require(_model[0] != 0, \"Invalid car model.\");\r\n        require(_initialPrice > 0, \"Invalid initial car price.\");\r\n        require(_imageHash[0] != 0, \"Invalid car image hash.\");\r\n        \r\n        Car memory car = Car(_make, _model, owner(), _initialPrice, false, _imageHash);\r\n        uint _carIndex = cars.push(car) - 1;\r\n        \r\n        uint carsLength = addressCars[owner()].push(_carIndex);\r\n        carIndexPosition[_carIndex] = carsLength - 1;\r\n        \r\n        emit CarAddedByContractOwner(_carIndex, car.make, car.model, car.price);\r\n    }\r\n    \r\n    function buyCarFromContractOwner(uint _index, uint _tokens) public onlyExistingCar(_index) {\r\n     \r\n        Car storage car = cars[_index];\r\n        require(car.owner == owner(), \"Contract owner is not owner of the car.\");\r\n        require(car.isSecondHand == false, \"The car is second-hand.\");\r\n        require(msg.sender != owner(), \"Contract owner is not allowed to call this function.\");\r\n        require(_tokens >= car.price, \"The amount of tokens sent is not enough.\");\r\n        \r\n        removeCarFromCurrentOwner(car.owner, _index);\r\n        \r\n        uint carsLength = addressCars[msg.sender].push(_index);\r\n        carIndexPosition[_index] = carsLength - 1;\r\n        \r\n        car.owner = msg.sender;\r\n        car.price = _tokens;\r\n        car.isSecondHand = true;\r\n        totalTokensSpentByAddress[msg.sender] = totalTokensSpentByAddress[msg.sender].add(_tokens);\r\n\r\n        require(ERC20(carToken).transferFrom(msg.sender, address(this), _tokens));\r\n        \r\n        emit CarBoughtFromContractOwner(car.owner, car.price, car.make, car.model);\r\n    }\r\n    \r\n    function buyCarFromSeller(uint _index, uint _tokens) public onlyExistingCar(_index) {\r\n        \r\n        Car storage car = cars[_index];\r\n        address currentOwner = car.owner;\r\n        \r\n        require(car.isSecondHand == true, \"This car is owned by the contract owner.\");\r\n        require(msg.sender != currentOwner, \"The owner of the car cannot buy a car he already owns.\");\r\n        require(_tokens >= car.price.mul(2) , \"You must pay at least twice the current price of the car.\");\r\n        \r\n        removeCarFromCurrentOwner(currentOwner, _index);\r\n        \r\n        uint carsLength = addressCars[msg.sender].push(_index);\r\n        carIndexPosition[_index] = carsLength - 1;\r\n        \r\n        uint refund = car.price.add(_tokens.sub(car.price).div(2));\r\n   \r\n        car.owner = msg.sender;\r\n        car.price = _tokens;\r\n        totalTokensSpentByAddress[msg.sender] = totalTokensSpentByAddress[msg.sender].add(_tokens);\r\n        \r\n        require(ERC20(carToken).transferFrom(msg.sender, address(this), _tokens));\r\n        require(ERC20(carToken).transfer(currentOwner, refund));\r\n        \r\n        emit CarBoughtFromSeller(car.owner, currentOwner, car.price, car.make, car.model);\r\n    }\r\n    \r\n    function getCarInfo(uint _index) public view onlyExistingCar(_index) returns (bytes32 _carMake, bytes32 _carModel, address _carOwner, uint _carPrice, bool _isSecondHand, bytes32 _imageHash) {\r\n        \r\n        Car memory car = cars[_index];\r\n        _carOwner = car.owner;\r\n        _carPrice = car.price;\r\n        _carMake = car.make;\r\n        _carModel = car.model;\r\n        _isSecondHand = car.isSecondHand;\r\n        _imageHash = car.imageHash;\r\n    }\r\n\r\n    function getCarPriceInUSD(uint _index) public view onlyExistingCar(_index) returns (uint _carPriceInUSD) {\r\n        uint ethPriceInUSD = Oracle(oracleContract).ethPriceInUSD();\r\n        return cars[_index].price.mul(ethPriceInUSD);\r\n    }\r\n    \r\n    function getAddressCars(address _address) public view returns (uint[]) {\r\n        return addressCars[_address];\r\n    }\r\n    \r\n    function withdrawProfit() onlyOwner public {\r\n        ERC20 carTokenContract = ERC20(carToken);\r\n        uint balance = carTokenContract.balanceOf(address(this));\r\n        require(balance > 0, \"The contract does not have any profit.\");\r\n\r\n        carTokenContract.transfer(owner(), balance);\r\n        \r\n        emit ProfitWithdrawal(balance, now);\r\n    }\r\n\r\n    function getTotalSpendingsByAddress(address _address) public view returns (uint) {\r\n        return totalTokensSpentByAddress[_address];\r\n    }\r\n\r\n    function getCarsCount() public view returns (uint) {\r\n        return cars.length;\r\n    }\r\n    \r\n    function removeCarFromCurrentOwner(address _owner, uint _carIndex) private {\r\n        uint arrIndex = carIndexPosition[_carIndex];\r\n    \r\n        if (addressCars[_owner].length > 1) {\r\n            carIndexPosition[addressCars[_owner][addressCars[_owner].length - 1]] = arrIndex;\r\n            \r\n            addressCars[_owner][arrIndex] = addressCars[_owner][addressCars[_owner].length - 1];\r\n        }\r\n        \r\n        addressCars[_owner].length--;\r\n    }\r\n}",
  "sourcePath": "D:\\Blockchain Dev Camp June\\Etherlime\\cars-etherlime\\contracts\\Cars.sol",
  "compiler": {
    "name": "solc",
    "version": "0.4.25+commit.59dbf8f1.Emscripten.clang"
  },
  "schemaVersion": "0.9.8",
  "updatedAt": "2018-11-22T22:50:44.720Z"
}