{
  "contractName": "Cars",
  "abi": [
    {
      "constant": false,
      "inputs": [],
      "name": "renounceOwnership",
      "outputs": [],
      "payable": false,
      "stateMutability": "nonpayable",
      "type": "function"
    },
    {
      "constant": true,
      "inputs": [],
      "name": "owner",
      "outputs": [
        {
          "name": "",
          "type": "address"
        }
      ],
      "payable": false,
      "stateMutability": "view",
      "type": "function"
    },
    {
      "constant": false,
      "inputs": [
        {
          "name": "_newOwner",
          "type": "address"
        }
      ],
      "name": "transferOwnership",
      "outputs": [],
      "payable": false,
      "stateMutability": "nonpayable",
      "type": "function"
    },
    {
      "anonymous": false,
      "inputs": [
        {
          "indexed": false,
          "name": "_carIndex",
          "type": "uint256"
        },
        {
          "indexed": false,
          "name": "_make",
          "type": "bytes32"
        },
        {
          "indexed": false,
          "name": "_model",
          "type": "bytes32"
        },
        {
          "indexed": false,
          "name": "_initialPrice",
          "type": "uint256"
        }
      ],
      "name": "CarAddedByContractOwner",
      "type": "event"
    },
    {
      "anonymous": false,
      "inputs": [
        {
          "indexed": false,
          "name": "_buyer",
          "type": "address"
        },
        {
          "indexed": false,
          "name": "_price",
          "type": "uint256"
        },
        {
          "indexed": false,
          "name": "_make",
          "type": "bytes32"
        },
        {
          "indexed": false,
          "name": "_model",
          "type": "bytes32"
        }
      ],
      "name": "CarBoughtFromContractOwner",
      "type": "event"
    },
    {
      "anonymous": false,
      "inputs": [
        {
          "indexed": false,
          "name": "_buyer",
          "type": "address"
        },
        {
          "indexed": false,
          "name": "_from",
          "type": "address"
        },
        {
          "indexed": false,
          "name": "_price",
          "type": "uint256"
        },
        {
          "indexed": false,
          "name": "_make",
          "type": "bytes32"
        },
        {
          "indexed": false,
          "name": "_model",
          "type": "bytes32"
        }
      ],
      "name": "CarBoughtFromSeller",
      "type": "event"
    },
    {
      "anonymous": false,
      "inputs": [
        {
          "indexed": false,
          "name": "_amount",
          "type": "uint256"
        },
        {
          "indexed": false,
          "name": "_timestamp",
          "type": "uint256"
        }
      ],
      "name": "ProfitWithdrawal",
      "type": "event"
    },
    {
      "anonymous": false,
      "inputs": [
        {
          "indexed": true,
          "name": "previousOwner",
          "type": "address"
        }
      ],
      "name": "OwnershipRenounced",
      "type": "event"
    },
    {
      "anonymous": false,
      "inputs": [
        {
          "indexed": true,
          "name": "previousOwner",
          "type": "address"
        },
        {
          "indexed": true,
          "name": "newOwner",
          "type": "address"
        }
      ],
      "name": "OwnershipTransferred",
      "type": "event"
    },
    {
      "constant": false,
      "inputs": [
        {
          "name": "_make",
          "type": "bytes32"
        },
        {
          "name": "_model",
          "type": "bytes32"
        },
        {
          "name": "_initialPrice",
          "type": "uint256"
        },
        {
          "name": "_imageHash",
          "type": "bytes32"
        }
      ],
      "name": "addCar",
      "outputs": [],
      "payable": false,
      "stateMutability": "nonpayable",
      "type": "function"
    },
    {
      "constant": false,
      "inputs": [
        {
          "name": "_index",
          "type": "uint256"
        }
      ],
      "name": "buyCarFromContractOwner",
      "outputs": [],
      "payable": true,
      "stateMutability": "payable",
      "type": "function"
    },
    {
      "constant": false,
      "inputs": [
        {
          "name": "_index",
          "type": "uint256"
        }
      ],
      "name": "buyCarFromSeller",
      "outputs": [],
      "payable": true,
      "stateMutability": "payable",
      "type": "function"
    },
    {
      "constant": true,
      "inputs": [
        {
          "name": "_index",
          "type": "uint256"
        }
      ],
      "name": "getCarInfo",
      "outputs": [
        {
          "name": "_carMake",
          "type": "bytes32"
        },
        {
          "name": "_carModel",
          "type": "bytes32"
        },
        {
          "name": "_carOwner",
          "type": "address"
        },
        {
          "name": "_carPrice",
          "type": "uint256"
        },
        {
          "name": "_isSecondHand",
          "type": "bool"
        },
        {
          "name": "_imageHash",
          "type": "bytes32"
        }
      ],
      "payable": false,
      "stateMutability": "view",
      "type": "function"
    },
    {
      "constant": true,
      "inputs": [
        {
          "name": "_address",
          "type": "address"
        }
      ],
      "name": "getAddressCars",
      "outputs": [
        {
          "name": "",
          "type": "uint256[]"
        }
      ],
      "payable": false,
      "stateMutability": "view",
      "type": "function"
    },
    {
      "constant": false,
      "inputs": [],
      "name": "withdrawProfit",
      "outputs": [],
      "payable": false,
      "stateMutability": "nonpayable",
      "type": "function"
    },
    {
      "constant": true,
      "inputs": [],
      "name": "getContractBalance",
      "outputs": [
        {
          "name": "",
          "type": "uint256"
        }
      ],
      "payable": false,
      "stateMutability": "view",
      "type": "function"
    },
    {
      "constant": true,
      "inputs": [
        {
          "name": "_address",
          "type": "address"
        }
      ],
      "name": "getTotalSpendingsByAddress",
      "outputs": [
        {
          "name": "",
          "type": "uint256"
        }
      ],
      "payable": false,
      "stateMutability": "view",
      "type": "function"
    },
    {
      "constant": true,
      "inputs": [],
      "name": "getCarsCount",
      "outputs": [
        {
          "name": "",
          "type": "uint256"
        }
      ],
      "payable": false,
      "stateMutability": "view",
      "type": "function"
    }
  ],
  "bytecode": "0x6080604052336000806101000a81548173ffffffffffffffffffffffffffffffffffffffff021916908373ffffffffffffffffffffffffffffffffffffffff160217905550612156806100536000396000f3006080604052600436106100ba576000357c0100000000000000000000000000000000000000000000000000000000900463ffffffff168063210a98ce146100bf5780635574c36e1461015757806356ccbcc414610177578063629c0738146101ce5780636f9fb98a14610225578063715018a6146102505780638da5cb5b14610267578063959499b6146102be578063bd3d4dae146102d5578063ca19cf4614610300578063d01af8bc14610320578063f2fde38b146103cc575b600080fd5b3480156100cb57600080fd5b50610100600480360381019080803573ffffffffffffffffffffffffffffffffffffffff16906020019092919050505061040f565b6040518080602001828103825283818151815260200191508051906020019060200280838360005b83811015610143578082015181840152602081019050610128565b505050509050019250505060405180910390f35b610175600480360381019080803590602001909291905050506104a6565b005b34801561018357600080fd5b506101cc60048036038101908080356000191690602001909291908035600019169060200190929190803590602001909291908035600019169060200190929190505050610a95565b005b3480156101da57600080fd5b5061020f600480360381019080803573ffffffffffffffffffffffffffffffffffffffff1690602001909291905050506110a2565b6040518082815260200191505060405180910390f35b34801561023157600080fd5b5061023a6110eb565b6040518082815260200191505060405180910390f35b34801561025c57600080fd5b50610265611165565b005b34801561027357600080fd5b5061027c611267565b604051808273ffffffffffffffffffffffffffffffffffffffff1673ffffffffffffffffffffffffffffffffffffffff16815260200191505060405180910390f35b3480156102ca57600080fd5b506102d361128c565b005b3480156102e157600080fd5b506102ea61144b565b6040518082815260200191505060405180910390f35b61031e60048036038101908080359060200190929190505050611458565b005b34801561032c57600080fd5b5061034b60048036038101908080359060200190929190505050611a95565b60405180876000191660001916815260200186600019166000191681526020018573ffffffffffffffffffffffffffffffffffffffff1673ffffffffffffffffffffffffffffffffffffffff168152602001848152602001831515151581526020018260001916600019168152602001965050505050505060405180910390f35b3480156103d857600080fd5b5061040d600480360381019080803573ffffffffffffffffffffffffffffffffffffffff169060200190929190505050611c38565b005b6060600260008373ffffffffffffffffffffffffffffffffffffffff1673ffffffffffffffffffffffffffffffffffffffff16815260200190815260200160002080548060200260200160405190810160405280929190818152602001828054801561049a57602002820191906000526020600020905b815481526020019060010190808311610486575b50505050509050919050565b60008060008084600181016001805490501015151561052d576040517f08c379a00000000000000000000000000000000000000000000000000000000081526004018080602001828103825260138152602001807f43617220646f6573206e6f742065786973742e0000000000000000000000000081525060200191505060405180910390fd5b60018681548110151561053c57fe5b906000526020600020906006020194508460020160009054906101000a900473ffffffffffffffffffffffffffffffffffffffff169350600115158560040160009054906101000a900460ff161515141515610626576040517f08c379a00000000000000000000000000000000000000000000000000000000081526004018080602001828103825260288152602001807f5468697320636172206973206f776e65642062792074686520636f6e7472616381526020017f74206f776e65722e00000000000000000000000000000000000000000000000081525060400191505060405180910390fd5b8373ffffffffffffffffffffffffffffffffffffffff163373ffffffffffffffffffffffffffffffffffffffff16141515156106f0576040517f08c379a00000000000000000000000000000000000000000000000000000000081526004018080602001828103825260368152602001807f546865206f776e6572206f6620746865206361722063616e6e6f74206275792081526020017f612063617220686520616c7265616479206f776e732e0000000000000000000081525060400191505060405180910390fd5b61070860028660030154611c9f90919063ffffffff16565b34101515156107a5576040517f08c379a00000000000000000000000000000000000000000000000000000000081526004018080602001828103825260398152602001807f596f75206d75737420706179206174206c65617374207477696365207468652081526020017f63757272656e74207072696365206f6620746865206361722e0000000000000081525060400191505060405180910390fd5b6107af8487611cd7565b600260003373ffffffffffffffffffffffffffffffffffffffff1673ffffffffffffffffffffffffffffffffffffffff168152602001908152602001600020869080600181540180825580915050906001820390600052602060002001600090919290919091505592506001830360036000888152602001908152602001600020819055506108746108616002610853886003015434611f3c90919063ffffffff16565b611f5590919063ffffffff16565b8660030154611f6b90919063ffffffff16565b9150338560020160006101000a81548173ffffffffffffffffffffffffffffffffffffffff021916908373ffffffffffffffffffffffffffffffffffffffff16021790555034856003018190555061091434600460003373ffffffffffffffffffffffffffffffffffffffff1673ffffffffffffffffffffffffffffffffffffffff16815260200190815260200160002054611f6b90919063ffffffff16565b600460003373ffffffffffffffffffffffffffffffffffffffff1673ffffffffffffffffffffffffffffffffffffffff168152602001908152602001600020819055508373ffffffffffffffffffffffffffffffffffffffff166108fc839081150290604051600060405180830381858888f1935050505015801561099d573d6000803e3d6000fd5b507fc0e0cb9a6bd116e9b9b19eb568f8fd24209b65d86955f8a6369f862169aeb31b8560020160009054906101000a900473ffffffffffffffffffffffffffffffffffffffff1685876003015488600001548960010154604051808673ffffffffffffffffffffffffffffffffffffffff1673ffffffffffffffffffffffffffffffffffffffff1681526020018573ffffffffffffffffffffffffffffffffffffffff1673ffffffffffffffffffffffffffffffffffffffff168152602001848152602001836000191660001916815260200182600019166000191681526020019550505050505060405180910390a1505050505050565b610a9d612081565b6000806000809054906101000a900473ffffffffffffffffffffffffffffffffffffffff1673ffffffffffffffffffffffffffffffffffffffff163373ffffffffffffffffffffffffffffffffffffffff16141515610afb57600080fd5b60007f010000000000000000000000000000000000000000000000000000000000000002876000602081101515610b2e57fe5b1a7f0100000000000000000000000000000000000000000000000000000000000000027effffffffffffffffffffffffffffffffffffffffffffffffffffffffffffff191614151515610be9576040517f08c379a00000000000000000000000000000000000000000000000000000000081526004018080602001828103825260118152602001807f496e76616c696420636172206d616b652e00000000000000000000000000000081525060200191505060405180910390fd5b60007f010000000000000000000000000000000000000000000000000000000000000002866000602081101515610c1c57fe5b1a7f0100000000000000000000000000000000000000000000000000000000000000027effffffffffffffffffffffffffffffffffffffffffffffffffffffffffffff191614151515610cd7576040517f08c379a00000000000000000000000000000000000000000000000000000000081526004018080602001828103825260128152602001807f496e76616c696420636172206d6f64656c2e000000000000000000000000000081525060200191505060405180910390fd5b600085111515610d4f576040517f08c379a000000000000000000000000000000000000000000000000000000000815260040180806020018281038252601a8152602001807f496e76616c696420696e697469616c206361722070726963652e00000000000081525060200191505060405180910390fd5b60007f010000000000000000000000000000000000000000000000000000000000000002846000602081101515610d8257fe5b1a7f0100000000000000000000000000000000000000000000000000000000000000027effffffffffffffffffffffffffffffffffffffffffffffffffffffffffffff191614151515610e3d576040517f08c379a00000000000000000000000000000000000000000000000000000000081526004018080602001828103825260178152602001807f496e76616c69642063617220696d61676520686173682e00000000000000000081525060200191505060405180910390fd5b60c06040519081016040528088600019168152602001876000191681526020016000809054906101000a900473ffffffffffffffffffffffffffffffffffffffff1673ffffffffffffffffffffffffffffffffffffffff168152602001868152602001600015158152602001856000191681525092506001808490806001815401808255809150509060018203906000526020600020906006020160009091929091909150600082015181600001906000191690556020820151816001019060001916905560408201518160020160006101000a81548173ffffffffffffffffffffffffffffffffffffffff021916908373ffffffffffffffffffffffffffffffffffffffff1602179055506060820151816003015560808201518160040160006101000a81548160ff02191690831515021790555060a082015181600501906000191690555050039150600260008060009054906101000a900473ffffffffffffffffffffffffffffffffffffffff1673ffffffffffffffffffffffffffffffffffffffff1673ffffffffffffffffffffffffffffffffffffffff168152602001908152602001600020829080600181540180825580915050906001820390600052602060002001600090919290919091505590506001810360036000848152602001908152602001600020819055507fa7f08ec5f96fecd8436475eb6d822684f492146e912af10dcd817135662c536682846000015185602001518660600151604051808581526020018460001916600019168152602001836000191660001916815260200182815260200194505050505060405180910390a150505050505050565b6000600460008373ffffffffffffffffffffffffffffffffffffffff1673ffffffffffffffffffffffffffffffffffffffff168152602001908152602001600020549050919050565b60008060009054906101000a900473ffffffffffffffffffffffffffffffffffffffff1673ffffffffffffffffffffffffffffffffffffffff163373ffffffffffffffffffffffffffffffffffffffff1614151561114857600080fd5b3073ffffffffffffffffffffffffffffffffffffffff1631905090565b6000809054906101000a900473ffffffffffffffffffffffffffffffffffffffff1673ffffffffffffffffffffffffffffffffffffffff163373ffffffffffffffffffffffffffffffffffffffff161415156111c057600080fd5b6000809054906101000a900473ffffffffffffffffffffffffffffffffffffffff1673ffffffffffffffffffffffffffffffffffffffff167ff8df31144d9c2f0f6b59d69b8b98abd5459d07f2742c4df920b25aae33c6482060405160405180910390a260008060006101000a81548173ffffffffffffffffffffffffffffffffffffffff021916908373ffffffffffffffffffffffffffffffffffffffff160217905550565b6000809054906101000a900473ffffffffffffffffffffffffffffffffffffffff1681565b60008060009054906101000a900473ffffffffffffffffffffffffffffffffffffffff1673ffffffffffffffffffffffffffffffffffffffff163373ffffffffffffffffffffffffffffffffffffffff161415156112e957600080fd5b3073ffffffffffffffffffffffffffffffffffffffff163190506000811115156113a1576040517f08c379a00000000000000000000000000000000000000000000000000000000081526004018080602001828103825260268152602001807f54686520636f6e747261637420646f6573206e6f74206861766520616e79207081526020017f726f6669742e000000000000000000000000000000000000000000000000000081525060400191505060405180910390fd5b6000809054906101000a900473ffffffffffffffffffffffffffffffffffffffff1673ffffffffffffffffffffffffffffffffffffffff166108fc829081150290604051600060405180830381858888f19350505050158015611408573d6000803e3d6000fd5b507feedac42b0023e5321fc6be2202c057bca3282debcff74a9748e2ad75029f16278142604051808381526020018281526020019250505060405180910390a150565b6000600180549050905090565b6000808260018101600180549050101515156114dc576040517f08c379a00000000000000000000000000000000000000000000000000000000081526004018080602001828103825260138152602001807f43617220646f6573206e6f742065786973742e0000000000000000000000000081525060200191505060405180910390fd5b6001848154811015156114eb57fe5b906000526020600020906006020192506000809054906101000a900473ffffffffffffffffffffffffffffffffffffffff1673ffffffffffffffffffffffffffffffffffffffff168360020160009054906101000a900473ffffffffffffffffffffffffffffffffffffffff1673ffffffffffffffffffffffffffffffffffffffff16141515611609576040517f08c379a00000000000000000000000000000000000000000000000000000000081526004018080602001828103825260278152602001807f436f6e7472616374206f776e6572206973206e6f74206f776e6572206f66207481526020017f6865206361722e0000000000000000000000000000000000000000000000000081525060400191505060405180910390fd5b600015158360040160009054906101000a900460ff161515141515611696576040517f08c379a00000000000000000000000000000000000000000000000000000000081526004018080602001828103825260178152602001807f54686520636172206973207365636f6e642d68616e642e00000000000000000081525060200191505060405180910390fd5b6000809054906101000a900473ffffffffffffffffffffffffffffffffffffffff1673ffffffffffffffffffffffffffffffffffffffff163373ffffffffffffffffffffffffffffffffffffffff1614151515611781576040517f08c379a00000000000000000000000000000000000000000000000000000000081526004018080602001828103825260348152602001807f436f6e7472616374206f776e6572206973206e6f7420616c6c6f77656420746f81526020017f2063616c6c20746869732066756e6374696f6e2e00000000000000000000000081525060400191505060405180910390fd5b82600301543410151515611823576040517f08c379a00000000000000000000000000000000000000000000000000000000081526004018080602001828103825260278152602001807f54686520616d6f756e74206f662065746865722073656e74206973206e6f742081526020017f656e6f7567682e0000000000000000000000000000000000000000000000000081525060400191505060405180910390fd5b6118518360020160009054906101000a900473ffffffffffffffffffffffffffffffffffffffff1685611cd7565b600260003373ffffffffffffffffffffffffffffffffffffffff1673ffffffffffffffffffffffffffffffffffffffff16815260200190815260200160002084908060018154018082558091505090600182039060005260206000200160009091929091909150559150600182036003600086815260200190815260200160002081905550338360020160006101000a81548173ffffffffffffffffffffffffffffffffffffffff021916908373ffffffffffffffffffffffffffffffffffffffff16021790555034836003018190555060018360040160006101000a81548160ff02191690831515021790555061199134600460003373ffffffffffffffffffffffffffffffffffffffff1673ffffffffffffffffffffffffffffffffffffffff16815260200190815260200160002054611f6b90919063ffffffff16565b600460003373ffffffffffffffffffffffffffffffffffffffff1673ffffffffffffffffffffffffffffffffffffffff168152602001908152602001600020819055507f97b792977a6fc6790e61ca8db06276fbe431c867ccb2cef151d5d48e433fab028360020160009054906101000a900473ffffffffffffffffffffffffffffffffffffffff16846003015485600001548660010154604051808573ffffffffffffffffffffffffffffffffffffffff1673ffffffffffffffffffffffffffffffffffffffff1681526020018481526020018360001916600019168152602001826000191660001916815260200194505050505060405180910390a150505050565b600080600080600080611aa6612081565b876001810160018054905010151515611b27576040517f08c379a00000000000000000000000000000000000000000000000000000000081526004018080602001828103825260138152602001807f43617220646f6573206e6f742065786973742e0000000000000000000000000081525060200191505060405180910390fd5b600189815481101515611b3657fe5b906000526020600020906006020160c060405190810160405290816000820154600019166000191681526020016001820154600019166000191681526020016002820160009054906101000a900473ffffffffffffffffffffffffffffffffffffffff1673ffffffffffffffffffffffffffffffffffffffff1673ffffffffffffffffffffffffffffffffffffffff168152602001600382015481526020016004820160009054906101000a900460ff161515151581526020016005820154600019166000191681525050915081604001519550816060015194508160000151975081602001519650816080015193508160a001519250505091939550919395565b6000809054906101000a900473ffffffffffffffffffffffffffffffffffffffff1673ffffffffffffffffffffffffffffffffffffffff163373ffffffffffffffffffffffffffffffffffffffff16141515611c9357600080fd5b611c9c81611f87565b50565b600080831415611cb25760009050611cd1565b8183029050818382811515611cc357fe5b04141515611ccd57fe5b8090505b92915050565b6000600360008381526020019081526020016000205490506001600260008573ffffffffffffffffffffffffffffffffffffffff1673ffffffffffffffffffffffffffffffffffffffff168152602001908152602001600020805490501115611ee4578060036000600260008773ffffffffffffffffffffffffffffffffffffffff1673ffffffffffffffffffffffffffffffffffffffff1681526020019081526020016000206001600260008973ffffffffffffffffffffffffffffffffffffffff1673ffffffffffffffffffffffffffffffffffffffff1681526020019081526020016000208054905003815481101515611dd057fe5b9060005260206000200154815260200190815260200160002081905550600260008473ffffffffffffffffffffffffffffffffffffffff1673ffffffffffffffffffffffffffffffffffffffff1681526020019081526020016000206001600260008673ffffffffffffffffffffffffffffffffffffffff1673ffffffffffffffffffffffffffffffffffffffff1681526020019081526020016000208054905003815481101515611e7e57fe5b9060005260206000200154600260008573ffffffffffffffffffffffffffffffffffffffff1673ffffffffffffffffffffffffffffffffffffffff16815260200190815260200160002082815481101515611ed557fe5b90600052602060002001819055505b600260008473ffffffffffffffffffffffffffffffffffffffff1673ffffffffffffffffffffffffffffffffffffffff168152602001908152602001600020805480919060019003611f3691906120d9565b50505050565b6000828211151515611f4a57fe5b818303905092915050565b60008183811515611f6257fe5b04905092915050565b60008183019050828110151515611f7e57fe5b80905092915050565b600073ffffffffffffffffffffffffffffffffffffffff168173ffffffffffffffffffffffffffffffffffffffff1614151515611fc357600080fd5b8073ffffffffffffffffffffffffffffffffffffffff166000809054906101000a900473ffffffffffffffffffffffffffffffffffffffff1673ffffffffffffffffffffffffffffffffffffffff167f8be0079c531659141344cd1fd0a4f28419497f9722a3daafe3b4186f6b6457e060405160405180910390a3806000806101000a81548173ffffffffffffffffffffffffffffffffffffffff021916908373ffffffffffffffffffffffffffffffffffffffff16021790555050565b60c0604051908101604052806000801916815260200160008019168152602001600073ffffffffffffffffffffffffffffffffffffffff16815260200160008152602001600015158152602001600080191681525090565b815481835581811115612100578183600052602060002091820191016120ff9190612105565b5b505050565b61212791905b8082111561212357600081600090555060010161210b565b5090565b905600a165627a7a72305820909fc01eeb3cc4451aa8feb83a40ccde16b644149f2e744bd0054fdc4d87b97c0029",
  "source": "pragma solidity ^0.4.25;\r\n\r\nimport \"openzeppelin-solidity/contracts/ownership/Ownable.sol\";\r\nimport \"openzeppelin-solidity/contracts/math/SafeMath.sol\";\r\n\r\ncontract Cars is Ownable {\r\n    using SafeMath for uint;\r\n\r\n    struct Car {\r\n        bytes32 make;\r\n        bytes32 model;\r\n        address owner;\r\n        uint price;\r\n        bool isSecondHand;\r\n        bytes32 imageHash;\r\n    }\r\n    \r\n    Car[] private cars;\r\n    \r\n    mapping(address => uint[]) addressCars;\r\n    mapping(uint => uint) carIndexPosition;\r\n    mapping(address => uint) totalMoneySpentByAddress;\r\n    \r\n    event CarAddedByContractOwner(uint _carIndex, bytes32 _make, bytes32 _model, uint _initialPrice);\r\n    event CarBoughtFromContractOwner(address _buyer, uint256 _price, bytes32 _make, bytes32 _model);\r\n    event CarBoughtFromSeller(address _buyer, address _from, uint _price, bytes32 _make, bytes32 _model);\r\n    event ProfitWithdrawal(uint _amount, uint _timestamp);\r\n\r\n    modifier onlyExistingCar(uint _index) {\r\n        require(cars.length >= _index + 1, \"Car does not exist.\");\r\n        _;\r\n    }\r\n    \r\n    function addCar(bytes32 _make, bytes32 _model, uint _initialPrice, bytes32 _imageHash) public onlyOwner {\r\n        require(_make[0] != 0, \"Invalid car make.\");\r\n        require(_model[0] != 0, \"Invalid car model.\");\r\n        require(_initialPrice > 0, \"Invalid initial car price.\");\r\n        require(_imageHash[0] != 0, \"Invalid car image hash.\");\r\n        \r\n        Car memory car = Car(_make, _model, owner, _initialPrice, false, _imageHash);\r\n        uint _carIndex = cars.push(car) - 1;\r\n        \r\n        uint carsLength = addressCars[owner].push(_carIndex);\r\n        carIndexPosition[_carIndex] = carsLength - 1;\r\n        \r\n        emit CarAddedByContractOwner(_carIndex, car.make, car.model, car.price);\r\n    }\r\n    \r\n    function buyCarFromContractOwner(uint _index) public payable onlyExistingCar(_index) {\r\n     \r\n        Car storage car = cars[_index];\r\n        require(car.owner == owner, \"Contract owner is not owner of the car.\");\r\n        require(car.isSecondHand == false, \"The car is second-hand.\");\r\n        require(msg.sender != owner, \"Contract owner is not allowed to call this function.\");\r\n        require(msg.value >= car.price, \"The amount of ether sent is not enough.\");\r\n        \r\n        removeCarFromCurrentOwner(car.owner, _index);\r\n        \r\n        uint carsLength = addressCars[msg.sender].push(_index);\r\n        carIndexPosition[_index] = carsLength - 1;\r\n        \r\n        car.owner = msg.sender;\r\n        car.price = msg.value;\r\n        car.isSecondHand = true;\r\n        totalMoneySpentByAddress[msg.sender] = totalMoneySpentByAddress[msg.sender].add(msg.value);\r\n        \r\n        emit CarBoughtFromContractOwner(car.owner, car.price, car.make, car.model);\r\n    }\r\n    \r\n    function buyCarFromSeller(uint _index) public payable onlyExistingCar(_index) {\r\n        \r\n        Car storage car = cars[_index];\r\n        address currentOwner = car.owner;\r\n        \r\n        require(car.isSecondHand == true, \"This car is owned by the contract owner.\");\r\n        require(msg.sender != currentOwner, \"The owner of the car cannot buy a car he already owns.\");\r\n        require(msg.value >= car.price.mul(2) , \"You must pay at least twice the current price of the car.\");\r\n        \r\n        removeCarFromCurrentOwner(currentOwner, _index);\r\n        \r\n        uint carsLength = addressCars[msg.sender].push(_index);\r\n        carIndexPosition[_index] = carsLength - 1;\r\n        \r\n        uint refund = car.price.add(msg.value.sub(car.price).div(2));\r\n   \r\n        car.owner = msg.sender;\r\n        car.price = msg.value;\r\n        totalMoneySpentByAddress[msg.sender] = totalMoneySpentByAddress[msg.sender].add(msg.value);\r\n        \r\n        currentOwner.transfer(refund);\r\n        \r\n        emit CarBoughtFromSeller(car.owner, currentOwner, car.price, car.make, car.model);\r\n    }\r\n    \r\n    function getCarInfo(uint _index) public view onlyExistingCar(_index) returns (bytes32 _carMake, bytes32 _carModel, address _carOwner, uint _carPrice, bool _isSecondHand, bytes32 _imageHash) {\r\n        \r\n        Car memory car = cars[_index];\r\n        _carOwner = car.owner;\r\n        _carPrice = car.price;\r\n        _carMake = car.make;\r\n        _carModel = car.model;\r\n        _isSecondHand = car.isSecondHand;\r\n        _imageHash = car.imageHash;\r\n    }\r\n    \r\n    function getAddressCars(address _address) public view returns (uint[]) {\r\n        return addressCars[_address];\r\n    }\r\n    \r\n    function withdrawProfit() onlyOwner public {\r\n        uint balance = address(this).balance;\r\n        require(balance > 0, \"The contract does not have any profit.\");\r\n        address(owner).transfer(balance);\r\n        \r\n        emit ProfitWithdrawal(balance, now);\r\n    }\r\n    \r\n    function getContractBalance() public view onlyOwner returns (uint) {\r\n        return address(this).balance;\r\n    }\r\n\r\n    function getTotalSpendingsByAddress(address _address) public view returns (uint) {\r\n        return totalMoneySpentByAddress[_address];\r\n    }\r\n\r\n    function getCarsCount() public view returns (uint) {\r\n        return cars.length;\r\n    }\r\n    \r\n    function removeCarFromCurrentOwner(address _owner, uint _carIndex) private {\r\n        uint arrIndex = carIndexPosition[_carIndex];\r\n    \r\n        if (addressCars[_owner].length > 1) {\r\n            carIndexPosition[addressCars[_owner][addressCars[_owner].length - 1]] = arrIndex;\r\n            \r\n            addressCars[_owner][arrIndex] = addressCars[_owner][addressCars[_owner].length - 1];\r\n        }\r\n        \r\n        addressCars[_owner].length--;\r\n    }\r\n}",
  "sourcePath": "D:\\Blockchain Dev Camp June\\LimeAcademy\\cars-etherlime\\contracts\\Cars.sol",
  "compiler": {
    "name": "solc",
    "version": "0.4.25+commit.59dbf8f1.Emscripten.clang"
  },
  "schemaVersion": "0.9.8",
  "updatedAt": "2018-11-05T15:03:18.216Z"
}